{
	"smart-wallet.sol": {
		"SmartWallet": {
			"abi": [
				{
					"inputs": [],
					"stateMutability": "nonpayable",
					"type": "constructor"
				},
				{
					"inputs": [
						{
							"internalType": "address",
							"name": "",
							"type": "address"
						}
					],
					"name": "allowance",
					"outputs": [
						{
							"internalType": "uint256",
							"name": "",
							"type": "uint256"
						}
					],
					"stateMutability": "view",
					"type": "function"
				},
				{
					"inputs": [],
					"name": "confirmationsFromGuardiansForReset",
					"outputs": [
						{
							"internalType": "uint256",
							"name": "",
							"type": "uint256"
						}
					],
					"stateMutability": "view",
					"type": "function"
				},
				{
					"inputs": [
						{
							"internalType": "address",
							"name": "",
							"type": "address"
						}
					],
					"name": "guardians",
					"outputs": [
						{
							"internalType": "bool",
							"name": "",
							"type": "bool"
						}
					],
					"stateMutability": "view",
					"type": "function"
				},
				{
					"inputs": [
						{
							"internalType": "address",
							"name": "",
							"type": "address"
						}
					],
					"name": "isAllowedToSend",
					"outputs": [
						{
							"internalType": "bool",
							"name": "",
							"type": "bool"
						}
					],
					"stateMutability": "view",
					"type": "function"
				},
				{
					"inputs": [],
					"name": "owner",
					"outputs": [
						{
							"internalType": "address payable",
							"name": "",
							"type": "address"
						}
					],
					"stateMutability": "view",
					"type": "function"
				},
				{
					"inputs": [
						{
							"internalType": "address payable",
							"name": "_newOwner",
							"type": "address"
						}
					],
					"name": "proposeNewOwner",
					"outputs": [],
					"stateMutability": "nonpayable",
					"type": "function"
				},
				{
					"inputs": [
						{
							"internalType": "address",
							"name": "_sender",
							"type": "address"
						},
						{
							"internalType": "uint256",
							"name": "_amount",
							"type": "uint256"
						}
					],
					"name": "setAllowance",
					"outputs": [],
					"stateMutability": "nonpayable",
					"type": "function"
				},
				{
					"inputs": [
						{
							"internalType": "address",
							"name": "_guardian",
							"type": "address"
						},
						{
							"internalType": "bool",
							"name": "_isGuardian",
							"type": "bool"
						}
					],
					"name": "setGuardian",
					"outputs": [],
					"stateMutability": "nonpayable",
					"type": "function"
				},
				{
					"inputs": [
						{
							"internalType": "address payable",
							"name": "_to",
							"type": "address"
						},
						{
							"internalType": "uint256",
							"name": "_amount",
							"type": "uint256"
						},
						{
							"internalType": "bytes",
							"name": "_payload",
							"type": "bytes"
						}
					],
					"name": "transfer",
					"outputs": [
						{
							"internalType": "bytes",
							"name": "",
							"type": "bytes"
						}
					],
					"stateMutability": "nonpayable",
					"type": "function"
				},
				{
					"stateMutability": "payable",
					"type": "receive"
				}
			],
			"devdoc": {
				"kind": "dev",
				"methods": {},
				"version": 1
			},
			"evm": {
				"assembly": "    /* \"smart-wallet.sol\":232:2294  contract SmartWallet {... */\n  mstore(0x40, 0x80)\n    /* \"smart-wallet.sol\":655:716  constructor() {... */\n  callvalue\n  dup1\n  iszero\n  tag_1\n  jumpi\n  revert(0x00, 0x00)\ntag_1:\n  pop\n    /* \"smart-wallet.sol\":697:707  msg.sender */\n  caller\n    /* \"smart-wallet.sol\":680:685  owner */\n  0x00\n  0x00\n    /* \"smart-wallet.sol\":680:708  owner = payable (msg.sender) */\n  0x0100\n  exp\n  dup2\n  sload\n  dup2\n  0xffffffffffffffffffffffffffffffffffffffff\n  mul\n  not\n  and\n  swap1\n  dup4\n  0xffffffffffffffffffffffffffffffffffffffff\n  and\n  mul\n  or\n  swap1\n  sstore\n  pop\n    /* \"smart-wallet.sol\":232:2294  contract SmartWallet {... */\n  dataSize(sub_0)\n  dup1\n  dataOffset(sub_0)\n  0x00\n  codecopy\n  0x00\n  return\nstop\n\nsub_0: assembly {\n        /* \"smart-wallet.sol\":232:2294  contract SmartWallet {... */\n      mstore(0x40, 0x80)\n      jumpi(tag_1, lt(calldatasize, 0x04))\n      shr(0xe0, calldataload(0x00))\n      dup1\n      0x3e5beab9\n      gt\n      tag_12\n      jumpi\n      dup1\n      0x3e5beab9\n      eq\n      tag_7\n      jumpi\n      dup1\n      0x83012be1\n      eq\n      tag_8\n      jumpi\n      dup1\n      0x8da5cb5b\n      eq\n      tag_9\n      jumpi\n      dup1\n      0xb1f8100d\n      eq\n      tag_10\n      jumpi\n      dup1\n      0xbe45fd62\n      eq\n      tag_11\n      jumpi\n      jump(tag_2)\n    tag_12:\n      dup1\n      0x0633b14a\n      eq\n      tag_3\n      jumpi\n      dup1\n      0x0bc605ad\n      eq\n      tag_4\n      jumpi\n      dup1\n      0x2b8a1c5a\n      eq\n      tag_5\n      jumpi\n      dup1\n      0x310ec4a7\n      eq\n      tag_6\n      jumpi\n      jump(tag_2)\n    tag_1:\n      jumpi(tag_2, calldatasize)\n      stop\n    tag_2:\n      revert(0x00, 0x00)\n        /* \"smart-wallet.sol\":398:439  mapping(address => bool) public guardians */\n    tag_3:\n      callvalue\n      dup1\n      iszero\n      tag_15\n      jumpi\n      revert(0x00, 0x00)\n    tag_15:\n      pop\n      tag_16\n      0x04\n      dup1\n      calldatasize\n      sub\n      dup2\n      add\n      swap1\n      tag_17\n      swap2\n      swap1\n      tag_18\n      jump\t// in\n    tag_17:\n      tag_19\n      jump\t// in\n    tag_16:\n      mload(0x40)\n      tag_20\n      swap2\n      swap1\n      tag_21\n      jump\t// in\n    tag_20:\n      mload(0x40)\n      dup1\n      swap2\n      sub\n      swap1\n      return\n        /* \"smart-wallet.sol\":344:391  mapping(address => bool) public isAllowedToSend */\n    tag_4:\n      callvalue\n      dup1\n      iszero\n      tag_22\n      jumpi\n      revert(0x00, 0x00)\n    tag_22:\n      pop\n      tag_23\n      0x04\n      dup1\n      calldatasize\n      sub\n      dup2\n      add\n      swap1\n      tag_24\n      swap2\n      swap1\n      tag_18\n      jump\t// in\n    tag_24:\n      tag_25\n      jump\t// in\n    tag_23:\n      mload(0x40)\n      tag_26\n      swap2\n      swap1\n      tag_21\n      jump\t// in\n    tag_26:\n      mload(0x40)\n      dup1\n      swap2\n      sub\n      swap1\n      return\n        /* \"smart-wallet.sol\":724:906  function setGuardian(address _guardian, bool _isGuardian) public {... */\n    tag_5:\n      callvalue\n      dup1\n      iszero\n      tag_27\n      jumpi\n      revert(0x00, 0x00)\n    tag_27:\n      pop\n      tag_28\n      0x04\n      dup1\n      calldatasize\n      sub\n      dup2\n      add\n      swap1\n      tag_29\n      swap2\n      swap1\n      tag_30\n      jump\t// in\n    tag_29:\n      tag_31\n      jump\t// in\n    tag_28:\n      stop\n        /* \"smart-wallet.sol\":1310:1632  function setAllowance(address _sender, uint _amount) public {... */\n    tag_6:\n      callvalue\n      dup1\n      iszero\n      tag_32\n      jumpi\n      revert(0x00, 0x00)\n    tag_32:\n      pop\n      tag_33\n      0x04\n      dup1\n      calldatasize\n      sub\n      dup2\n      add\n      swap1\n      tag_34\n      swap2\n      swap1\n      tag_35\n      jump\t// in\n    tag_34:\n      tag_36\n      jump\t// in\n    tag_33:\n      stop\n        /* \"smart-wallet.sol\":296:337  mapping(address => uint) public allowance */\n    tag_7:\n      callvalue\n      dup1\n      iszero\n      tag_37\n      jumpi\n      revert(0x00, 0x00)\n    tag_37:\n      pop\n      tag_38\n      0x04\n      dup1\n      calldatasize\n      sub\n      dup2\n      add\n      swap1\n      tag_39\n      swap2\n      swap1\n      tag_18\n      jump\t// in\n    tag_39:\n      tag_40\n      jump\t// in\n    tag_38:\n      mload(0x40)\n      tag_41\n      swap2\n      swap1\n      tag_42\n      jump\t// in\n    tag_41:\n      mload(0x40)\n      dup1\n      swap2\n      sub\n      swap1\n      return\n        /* \"smart-wallet.sol\":587:646  uint public constant confirmationsFromGuardiansForReset = 3 */\n    tag_8:\n      callvalue\n      dup1\n      iszero\n      tag_43\n      jumpi\n      revert(0x00, 0x00)\n    tag_43:\n      pop\n      tag_44\n      tag_45\n      jump\t// in\n    tag_44:\n      mload(0x40)\n      tag_46\n      swap2\n      swap1\n      tag_42\n      jump\t// in\n    tag_46:\n      mload(0x40)\n      dup1\n      swap2\n      sub\n      swap1\n      return\n        /* \"smart-wallet.sol\":260:289  address payable public  owner */\n    tag_9:\n      callvalue\n      dup1\n      iszero\n      tag_47\n      jumpi\n      revert(0x00, 0x00)\n    tag_47:\n      pop\n      tag_48\n      tag_49\n      jump\t// in\n    tag_48:\n      mload(0x40)\n      tag_50\n      swap2\n      swap1\n      tag_51\n      jump\t// in\n    tag_50:\n      mload(0x40)\n      dup1\n      swap2\n      sub\n      swap1\n      return\n        /* \"smart-wallet.sol\":914:1302  function proposeNewOwner(address payable _newOwner) public  {... */\n    tag_10:\n      callvalue\n      dup1\n      iszero\n      tag_52\n      jumpi\n      revert(0x00, 0x00)\n    tag_52:\n      pop\n      tag_53\n      0x04\n      dup1\n      calldatasize\n      sub\n      dup2\n      add\n      swap1\n      tag_54\n      swap2\n      swap1\n      tag_55\n      jump\t// in\n    tag_54:\n      tag_56\n      jump\t// in\n    tag_53:\n      stop\n        /* \"smart-wallet.sol\":1640:2253  function transfer(address payable _to, uint _amount, bytes memory _payload) public returns(bytes memory) {... */\n    tag_11:\n      callvalue\n      dup1\n      iszero\n      tag_57\n      jumpi\n      revert(0x00, 0x00)\n    tag_57:\n      pop\n      tag_58\n      0x04\n      dup1\n      calldatasize\n      sub\n      dup2\n      add\n      swap1\n      tag_59\n      swap2\n      swap1\n      tag_60\n      jump\t// in\n    tag_59:\n      tag_61\n      jump\t// in\n    tag_58:\n      mload(0x40)\n      tag_62\n      swap2\n      swap1\n      tag_63\n      jump\t// in\n    tag_62:\n      mload(0x40)\n      dup1\n      swap2\n      sub\n      swap1\n      return\n        /* \"smart-wallet.sol\":398:439  mapping(address => bool) public guardians */\n    tag_19:\n      mstore(0x20, 0x03)\n      dup1\n      0x00\n      mstore\n      keccak256(0x00, 0x40)\n      0x00\n      swap2\n      pop\n      sload\n      swap1\n      0x0100\n      exp\n      swap1\n      div\n      0xff\n      and\n      dup2\n      jump\t// out\n        /* \"smart-wallet.sol\":344:391  mapping(address => bool) public isAllowedToSend */\n    tag_25:\n      mstore(0x20, 0x02)\n      dup1\n      0x00\n      mstore\n      keccak256(0x00, 0x40)\n      0x00\n      swap2\n      pop\n      sload\n      swap1\n      0x0100\n      exp\n      swap1\n      div\n      0xff\n      and\n      dup2\n      jump\t// out\n        /* \"smart-wallet.sol\":724:906  function setGuardian(address _guardian, bool _isGuardian) public {... */\n    tag_31:\n        /* \"smart-wallet.sol\":822:827  owner */\n      0x00\n      0x00\n      swap1\n      sload\n      swap1\n      0x0100\n      exp\n      swap1\n      div\n      0xffffffffffffffffffffffffffffffffffffffff\n      and\n        /* \"smart-wallet.sol\":808:827  msg.sender == owner */\n      0xffffffffffffffffffffffffffffffffffffffff\n      and\n        /* \"smart-wallet.sol\":808:818  msg.sender */\n      caller\n        /* \"smart-wallet.sol\":808:827  msg.sender == owner */\n      0xffffffffffffffffffffffffffffffffffffffff\n      and\n      eq\n        /* \"smart-wallet.sol\":800:853  require(msg.sender == owner, \"You are not the owner\") */\n      tag_65\n      jumpi\n      mload(0x40)\n      0x08c379a000000000000000000000000000000000000000000000000000000000\n      dup2\n      mstore\n      0x04\n      add\n      tag_66\n      swap1\n      tag_67\n      jump\t// in\n    tag_66:\n      mload(0x40)\n      dup1\n      swap2\n      sub\n      swap1\n      revert\n    tag_65:\n        /* \"smart-wallet.sol\":887:898  _isGuardian */\n      dup1\n        /* \"smart-wallet.sol\":864:873  guardians */\n      0x03\n        /* \"smart-wallet.sol\":864:884  guardians[_guardian] */\n      0x00\n        /* \"smart-wallet.sol\":874:883  _guardian */\n      dup5\n        /* \"smart-wallet.sol\":864:884  guardians[_guardian] */\n      0xffffffffffffffffffffffffffffffffffffffff\n      and\n      0xffffffffffffffffffffffffffffffffffffffff\n      and\n      dup2\n      mstore\n      0x20\n      add\n      swap1\n      dup2\n      mstore\n      0x20\n      add\n      0x00\n      keccak256\n      0x00\n        /* \"smart-wallet.sol\":864:898  guardians[_guardian] = _isGuardian */\n      0x0100\n      exp\n      dup2\n      sload\n      dup2\n      0xff\n      mul\n      not\n      and\n      swap1\n      dup4\n      iszero\n      iszero\n      mul\n      or\n      swap1\n      sstore\n      pop\n        /* \"smart-wallet.sol\":724:906  function setGuardian(address _guardian, bool _isGuardian) public {... */\n      pop\n      pop\n      jump\t// out\n        /* \"smart-wallet.sol\":1310:1632  function setAllowance(address _sender, uint _amount) public {... */\n    tag_36:\n        /* \"smart-wallet.sol\":1403:1408  owner */\n      0x00\n      0x00\n      swap1\n      sload\n      swap1\n      0x0100\n      exp\n      swap1\n      div\n      0xffffffffffffffffffffffffffffffffffffffff\n      and\n        /* \"smart-wallet.sol\":1389:1408  msg.sender == owner */\n      0xffffffffffffffffffffffffffffffffffffffff\n      and\n        /* \"smart-wallet.sol\":1389:1399  msg.sender */\n      caller\n        /* \"smart-wallet.sol\":1389:1408  msg.sender == owner */\n      0xffffffffffffffffffffffffffffffffffffffff\n      and\n      eq\n        /* \"smart-wallet.sol\":1381:1434  require(msg.sender == owner, \"You are not the owner\") */\n      tag_69\n      jumpi\n      mload(0x40)\n      0x08c379a000000000000000000000000000000000000000000000000000000000\n      dup2\n      mstore\n      0x04\n      add\n      tag_70\n      swap1\n      tag_67\n      jump\t// in\n    tag_70:\n      mload(0x40)\n      dup1\n      swap2\n      sub\n      swap1\n      revert\n    tag_69:\n        /* \"smart-wallet.sol\":1466:1473  _amount */\n      dup1\n        /* \"smart-wallet.sol\":1445:1454  allowance */\n      0x01\n        /* \"smart-wallet.sol\":1445:1463  allowance[_sender] */\n      0x00\n        /* \"smart-wallet.sol\":1455:1462  _sender */\n      dup5\n        /* \"smart-wallet.sol\":1445:1463  allowance[_sender] */\n      0xffffffffffffffffffffffffffffffffffffffff\n      and\n      0xffffffffffffffffffffffffffffffffffffffff\n      and\n      dup2\n      mstore\n      0x20\n      add\n      swap1\n      dup2\n      mstore\n      0x20\n      add\n      0x00\n      keccak256\n        /* \"smart-wallet.sol\":1445:1473  allowance[_sender] = _amount */\n      dup2\n      swap1\n      sstore\n      pop\n        /* \"smart-wallet.sol\":1499:1500  0 */\n      0x00\n        /* \"smart-wallet.sol\":1489:1496  _amount */\n      dup2\n        /* \"smart-wallet.sol\":1489:1500  _amount > 0 */\n      gt\n        /* \"smart-wallet.sol\":1486:1625  if(_amount > 0) {... */\n      iszero\n      tag_71\n      jumpi\n        /* \"smart-wallet.sol\":1544:1548  true */\n      0x01\n        /* \"smart-wallet.sol\":1517:1532  isAllowedToSend */\n      0x02\n        /* \"smart-wallet.sol\":1517:1541  isAllowedToSend[_sender] */\n      0x00\n        /* \"smart-wallet.sol\":1533:1540  _sender */\n      dup5\n        /* \"smart-wallet.sol\":1517:1541  isAllowedToSend[_sender] */\n      0xffffffffffffffffffffffffffffffffffffffff\n      and\n      0xffffffffffffffffffffffffffffffffffffffff\n      and\n      dup2\n      mstore\n      0x20\n      add\n      swap1\n      dup2\n      mstore\n      0x20\n      add\n      0x00\n      keccak256\n      0x00\n        /* \"smart-wallet.sol\":1517:1548  isAllowedToSend[_sender] = true */\n      0x0100\n      exp\n      dup2\n      sload\n      dup2\n      0xff\n      mul\n      not\n      and\n      swap1\n      dup4\n      iszero\n      iszero\n      mul\n      or\n      swap1\n      sstore\n      pop\n        /* \"smart-wallet.sol\":1486:1625  if(_amount > 0) {... */\n      jump(tag_72)\n    tag_71:\n        /* \"smart-wallet.sol\":1608:1613  false */\n      0x00\n        /* \"smart-wallet.sol\":1581:1596  isAllowedToSend */\n      0x02\n        /* \"smart-wallet.sol\":1581:1605  isAllowedToSend[_sender] */\n      0x00\n        /* \"smart-wallet.sol\":1597:1604  _sender */\n      dup5\n        /* \"smart-wallet.sol\":1581:1605  isAllowedToSend[_sender] */\n      0xffffffffffffffffffffffffffffffffffffffff\n      and\n      0xffffffffffffffffffffffffffffffffffffffff\n      and\n      dup2\n      mstore\n      0x20\n      add\n      swap1\n      dup2\n      mstore\n      0x20\n      add\n      0x00\n      keccak256\n      0x00\n        /* \"smart-wallet.sol\":1581:1613  isAllowedToSend[_sender] = false */\n      0x0100\n      exp\n      dup2\n      sload\n      dup2\n      0xff\n      mul\n      not\n      and\n      swap1\n      dup4\n      iszero\n      iszero\n      mul\n      or\n      swap1\n      sstore\n      pop\n        /* \"smart-wallet.sol\":1486:1625  if(_amount > 0) {... */\n    tag_72:\n        /* \"smart-wallet.sol\":1310:1632  function setAllowance(address _sender, uint _amount) public {... */\n      pop\n      pop\n      jump\t// out\n        /* \"smart-wallet.sol\":296:337  mapping(address => uint) public allowance */\n    tag_40:\n      mstore(0x20, 0x01)\n      dup1\n      0x00\n      mstore\n      keccak256(0x00, 0x40)\n      0x00\n      swap2\n      pop\n      swap1\n      pop\n      sload\n      dup2\n      jump\t// out\n        /* \"smart-wallet.sol\":587:646  uint public constant confirmationsFromGuardiansForReset = 3 */\n    tag_45:\n        /* \"smart-wallet.sol\":645:646  3 */\n      0x03\n        /* \"smart-wallet.sol\":587:646  uint public constant confirmationsFromGuardiansForReset = 3 */\n      dup2\n      jump\t// out\n        /* \"smart-wallet.sol\":260:289  address payable public  owner */\n    tag_49:\n      0x00\n      0x00\n      swap1\n      sload\n      swap1\n      0x0100\n      exp\n      swap1\n      div\n      0xffffffffffffffffffffffffffffffffffffffff\n      and\n      dup2\n      jump\t// out\n        /* \"smart-wallet.sol\":914:1302  function proposeNewOwner(address payable _newOwner) public  {... */\n    tag_56:\n        /* \"smart-wallet.sol\":993:1002  guardians */\n      0x03\n        /* \"smart-wallet.sol\":993:1014  guardians[msg.sender] */\n      0x00\n        /* \"smart-wallet.sol\":1003:1013  msg.sender */\n      caller\n        /* \"smart-wallet.sol\":993:1014  guardians[msg.sender] */\n      0xffffffffffffffffffffffffffffffffffffffff\n      and\n      0xffffffffffffffffffffffffffffffffffffffff\n      and\n      dup2\n      mstore\n      0x20\n      add\n      swap1\n      dup2\n      mstore\n      0x20\n      add\n      0x00\n      keccak256\n      0x00\n      swap1\n      sload\n      swap1\n      0x0100\n      exp\n      swap1\n      div\n      0xff\n      and\n        /* \"smart-wallet.sol\":985:1054  require(guardians[msg.sender], \"You are not guardian of this wallet\") */\n      tag_74\n      jumpi\n      mload(0x40)\n      0x08c379a000000000000000000000000000000000000000000000000000000000\n      dup2\n      mstore\n      0x04\n      add\n      tag_75\n      swap1\n      tag_76\n      jump\t// in\n    tag_75:\n      mload(0x40)\n      dup1\n      swap2\n      sub\n      swap1\n      revert\n    tag_74:\n        /* \"smart-wallet.sol\":1126:1131  false */\n      0x00\n        /* \"smart-wallet.sol\":1073:1131  nextOwnerGuardianVotedBool[_newOwner][msg.sender] == false */\n      iszero\n      iszero\n        /* \"smart-wallet.sol\":1073:1099  nextOwnerGuardianVotedBool */\n      0x05\n        /* \"smart-wallet.sol\":1073:1110  nextOwnerGuardianVotedBool[_newOwner] */\n      0x00\n        /* \"smart-wallet.sol\":1100:1109  _newOwner */\n      dup4\n        /* \"smart-wallet.sol\":1073:1110  nextOwnerGuardianVotedBool[_newOwner] */\n      0xffffffffffffffffffffffffffffffffffffffff\n      and\n      0xffffffffffffffffffffffffffffffffffffffff\n      and\n      dup2\n      mstore\n      0x20\n      add\n      swap1\n      dup2\n      mstore\n      0x20\n      add\n      0x00\n      keccak256\n        /* \"smart-wallet.sol\":1073:1122  nextOwnerGuardianVotedBool[_newOwner][msg.sender] */\n      0x00\n        /* \"smart-wallet.sol\":1111:1121  msg.sender */\n      caller\n        /* \"smart-wallet.sol\":1073:1122  nextOwnerGuardianVotedBool[_newOwner][msg.sender] */\n      0xffffffffffffffffffffffffffffffffffffffff\n      and\n      0xffffffffffffffffffffffffffffffffffffffff\n      and\n      dup2\n      mstore\n      0x20\n      add\n      swap1\n      dup2\n      mstore\n      0x20\n      add\n      0x00\n      keccak256\n      0x00\n      swap1\n      sload\n      swap1\n      0x0100\n      exp\n      swap1\n      div\n      0xff\n      and\n        /* \"smart-wallet.sol\":1073:1131  nextOwnerGuardianVotedBool[_newOwner][msg.sender] == false */\n      iszero\n      iszero\n      eq\n        /* \"smart-wallet.sol\":1065:1172  require(nextOwnerGuardianVotedBool[_newOwner][msg.sender] == false, \"You already voted for this new owner\") */\n      tag_77\n      jumpi\n      mload(0x40)\n      0x08c379a000000000000000000000000000000000000000000000000000000000\n      dup2\n      mstore\n      0x04\n      add\n      tag_78\n      swap1\n      tag_79\n      jump\t// in\n    tag_78:\n      mload(0x40)\n      dup1\n      swap2\n      sub\n      swap1\n      revert\n    tag_77:\n        /* \"smart-wallet.sol\":1199:1208  nextOwner */\n      0x04\n      0x00\n      swap1\n      sload\n      swap1\n      0x0100\n      exp\n      swap1\n      div\n      0xffffffffffffffffffffffffffffffffffffffff\n      and\n        /* \"smart-wallet.sol\":1186:1208  _newOwner != nextOwner */\n      0xffffffffffffffffffffffffffffffffffffffff\n      and\n        /* \"smart-wallet.sol\":1186:1195  _newOwner */\n      dup2\n        /* \"smart-wallet.sol\":1186:1208  _newOwner != nextOwner */\n      0xffffffffffffffffffffffffffffffffffffffff\n      and\n      eq\n        /* \"smart-wallet.sol\":1183:1295  if(_newOwner != nextOwner){... */\n      tag_80\n      jumpi\n        /* \"smart-wallet.sol\":1236:1245  _newOwner */\n      dup1\n        /* \"smart-wallet.sol\":1224:1233  nextOwner */\n      0x04\n      0x00\n        /* \"smart-wallet.sol\":1224:1245  nextOwner = _newOwner */\n      0x0100\n      exp\n      dup2\n      sload\n      dup2\n      0xffffffffffffffffffffffffffffffffffffffff\n      mul\n      not\n      and\n      swap1\n      dup4\n      0xffffffffffffffffffffffffffffffffffffffff\n      and\n      mul\n      or\n      swap1\n      sstore\n      pop\n        /* \"smart-wallet.sol\":1282:1283  0 */\n      0x00\n        /* \"smart-wallet.sol\":1260:1279  guardiansResetCount */\n      0x06\n        /* \"smart-wallet.sol\":1260:1283  guardiansResetCount = 0 */\n      dup2\n      swap1\n      sstore\n      pop\n        /* \"smart-wallet.sol\":1183:1295  if(_newOwner != nextOwner){... */\n    tag_80:\n        /* \"smart-wallet.sol\":914:1302  function proposeNewOwner(address payable _newOwner) public  {... */\n      pop\n      jump\t// out\n        /* \"smart-wallet.sol\":1640:2253  function transfer(address payable _to, uint _amount, bytes memory _payload) public returns(bytes memory) {... */\n    tag_61:\n        /* \"smart-wallet.sol\":1731:1743  bytes memory */\n      0x60\n        /* \"smart-wallet.sol\":1841:1846  owner */\n      0x00\n      0x00\n      swap1\n      sload\n      swap1\n      0x0100\n      exp\n      swap1\n      div\n      0xffffffffffffffffffffffffffffffffffffffff\n      and\n        /* \"smart-wallet.sol\":1827:1846  msg.sender != owner */\n      0xffffffffffffffffffffffffffffffffffffffff\n      and\n        /* \"smart-wallet.sol\":1827:1837  msg.sender */\n      caller\n        /* \"smart-wallet.sol\":1827:1846  msg.sender != owner */\n      0xffffffffffffffffffffffffffffffffffffffff\n      and\n      eq\n        /* \"smart-wallet.sol\":1823:2065  if (msg.sender != owner) {... */\n      tag_82\n      jumpi\n        /* \"smart-wallet.sol\":1871:1886  isAllowedToSend */\n      0x02\n        /* \"smart-wallet.sol\":1871:1898  isAllowedToSend[msg.sender] */\n      0x00\n        /* \"smart-wallet.sol\":1887:1897  msg.sender */\n      caller\n        /* \"smart-wallet.sol\":1871:1898  isAllowedToSend[msg.sender] */\n      0xffffffffffffffffffffffffffffffffffffffff\n      and\n      0xffffffffffffffffffffffffffffffffffffffff\n      and\n      dup2\n      mstore\n      0x20\n      add\n      swap1\n      dup2\n      mstore\n      0x20\n      add\n      0x00\n      keccak256\n      0x00\n      swap1\n      sload\n      swap1\n      0x0100\n      exp\n      swap1\n      div\n      0xff\n      and\n        /* \"smart-wallet.sol\":1863:1971  require(isAllowedToSend[msg.sender], \"You are not allowed to send anythin from this sart contract aborting\") */\n      tag_83\n      jumpi\n      mload(0x40)\n      0x08c379a000000000000000000000000000000000000000000000000000000000\n      dup2\n      mstore\n      0x04\n      add\n      tag_84\n      swap1\n      tag_85\n      jump\t// in\n    tag_84:\n      mload(0x40)\n      dup1\n      swap2\n      sub\n      swap1\n      revert\n    tag_83:\n        /* \"smart-wallet.sol\":2019:2026  _amount */\n      dup3\n        /* \"smart-wallet.sol\":1994:2003  allowance */\n      0x01\n        /* \"smart-wallet.sol\":1994:2015  allowance[msg.sender] */\n      0x00\n        /* \"smart-wallet.sol\":2004:2014  msg.sender */\n      caller\n        /* \"smart-wallet.sol\":1994:2015  allowance[msg.sender] */\n      0xffffffffffffffffffffffffffffffffffffffff\n      and\n      0xffffffffffffffffffffffffffffffffffffffff\n      and\n      dup2\n      mstore\n      0x20\n      add\n      swap1\n      dup2\n      mstore\n      0x20\n      add\n      0x00\n      keccak256\n      sload\n        /* \"smart-wallet.sol\":1994:2026  allowance[msg.sender] >= _amount */\n      lt\n      iszero\n        /* \"smart-wallet.sol\":1986:2053  require(allowance[msg.sender] >= _amount, \"Insufficient allowance\") */\n      tag_86\n      jumpi\n      mload(0x40)\n      0x08c379a000000000000000000000000000000000000000000000000000000000\n      dup2\n      mstore\n      0x04\n      add\n      tag_87\n      swap1\n      tag_88\n      jump\t// in\n    tag_87:\n      mload(0x40)\n      dup1\n      swap2\n      sub\n      swap1\n      revert\n    tag_86:\n        /* \"smart-wallet.sol\":1823:2065  if (msg.sender != owner) {... */\n    tag_82:\n        /* \"smart-wallet.sol\":2078:2090  bool success */\n      0x00\n        /* \"smart-wallet.sol\":2092:2115  bytes memory returnData */\n      0x00\n        /* \"smart-wallet.sol\":2119:2122  _to */\n      dup6\n        /* \"smart-wallet.sol\":2119:2127  _to.call */\n      0xffffffffffffffffffffffffffffffffffffffff\n      and\n        /* \"smart-wallet.sol\":2135:2142  _amount */\n      dup6\n        /* \"smart-wallet.sol\":2144:2152  _payload */\n      dup6\n        /* \"smart-wallet.sol\":2119:2153  _to.call{value: _amount}(_payload) */\n      mload(0x40)\n      tag_89\n      swap2\n      swap1\n      tag_90\n      jump\t// in\n    tag_89:\n      0x00\n      mload(0x40)\n      dup1\n      dup4\n      sub\n      dup2\n      dup6\n      dup8\n      gas\n      call\n      swap3\n      pop\n      pop\n      pop\n      returndatasize\n      dup1\n      0x00\n      dup2\n      eq\n      tag_93\n      jumpi\n      mload(0x40)\n      swap2\n      pop\n      and(add(returndatasize, 0x3f), not(0x1f))\n      dup3\n      add\n      0x40\n      mstore\n      returndatasize\n      dup3\n      mstore\n      returndatasize\n      0x00\n      0x20\n      dup5\n      add\n      returndatacopy\n      jump(tag_92)\n    tag_93:\n      0x60\n      swap2\n      pop\n    tag_92:\n      pop\n        /* \"smart-wallet.sol\":2077:2153  (bool success, bytes memory returnData) = _to.call{value: _amount}(_payload) */\n      swap2\n      pop\n      swap2\n      pop\n        /* \"smart-wallet.sol\":2172:2179  success */\n      dup2\n        /* \"smart-wallet.sol\":2164:2217  require(success, \"Aborting, call was not successful\") */\n      tag_94\n      jumpi\n      mload(0x40)\n      0x08c379a000000000000000000000000000000000000000000000000000000000\n      dup2\n      mstore\n      0x04\n      add\n      tag_95\n      swap1\n      tag_96\n      jump\t// in\n    tag_95:\n      mload(0x40)\n      dup1\n      swap2\n      sub\n      swap1\n      revert\n    tag_94:\n        /* \"smart-wallet.sol\":2235:2245  returnData */\n      dup1\n        /* \"smart-wallet.sol\":2228:2245  return returnData */\n      swap3\n      pop\n      pop\n      pop\n        /* \"smart-wallet.sol\":1640:2253  function transfer(address payable _to, uint _amount, bytes memory _payload) public returns(bytes memory) {... */\n      swap4\n      swap3\n      pop\n      pop\n      pop\n      jump\t// out\n        /* \"#utility.yul\":7:82   */\n    tag_97:\n        /* \"#utility.yul\":40:46   */\n      0x00\n        /* \"#utility.yul\":73:75   */\n      0x40\n        /* \"#utility.yul\":67:76   */\n      mload\n        /* \"#utility.yul\":57:76   */\n      swap1\n      pop\n        /* \"#utility.yul\":7:82   */\n      swap1\n      jump\t// out\n        /* \"#utility.yul\":88:205   */\n    tag_98:\n        /* \"#utility.yul\":197:198   */\n      0x00\n        /* \"#utility.yul\":194:195   */\n      0x00\n        /* \"#utility.yul\":187:199   */\n      revert\n        /* \"#utility.yul\":211:328   */\n    tag_99:\n        /* \"#utility.yul\":320:321   */\n      0x00\n        /* \"#utility.yul\":317:318   */\n      0x00\n        /* \"#utility.yul\":310:322   */\n      revert\n        /* \"#utility.yul\":334:460   */\n    tag_100:\n        /* \"#utility.yul\":371:378   */\n      0x00\n        /* \"#utility.yul\":411:453   */\n      0xffffffffffffffffffffffffffffffffffffffff\n        /* \"#utility.yul\":404:409   */\n      dup3\n        /* \"#utility.yul\":400:454   */\n      and\n        /* \"#utility.yul\":389:454   */\n      swap1\n      pop\n        /* \"#utility.yul\":334:460   */\n      swap2\n      swap1\n      pop\n      jump\t// out\n        /* \"#utility.yul\":466:562   */\n    tag_101:\n        /* \"#utility.yul\":503:510   */\n      0x00\n        /* \"#utility.yul\":532:556   */\n      tag_151\n        /* \"#utility.yul\":550:555   */\n      dup3\n        /* \"#utility.yul\":532:556   */\n      tag_100\n      jump\t// in\n    tag_151:\n        /* \"#utility.yul\":521:556   */\n      swap1\n      pop\n        /* \"#utility.yul\":466:562   */\n      swap2\n      swap1\n      pop\n      jump\t// out\n        /* \"#utility.yul\":568:690   */\n    tag_102:\n        /* \"#utility.yul\":641:665   */\n      tag_153\n        /* \"#utility.yul\":659:664   */\n      dup2\n        /* \"#utility.yul\":641:665   */\n      tag_101\n      jump\t// in\n    tag_153:\n        /* \"#utility.yul\":634:639   */\n      dup2\n        /* \"#utility.yul\":631:666   */\n      eq\n        /* \"#utility.yul\":621:684   */\n      tag_154\n      jumpi\n        /* \"#utility.yul\":680:681   */\n      0x00\n        /* \"#utility.yul\":677:678   */\n      0x00\n        /* \"#utility.yul\":670:682   */\n      revert\n        /* \"#utility.yul\":621:684   */\n    tag_154:\n        /* \"#utility.yul\":568:690   */\n      pop\n      jump\t// out\n        /* \"#utility.yul\":696:835   */\n    tag_103:\n        /* \"#utility.yul\":742:747   */\n      0x00\n        /* \"#utility.yul\":780:786   */\n      dup2\n        /* \"#utility.yul\":767:787   */\n      calldataload\n        /* \"#utility.yul\":758:787   */\n      swap1\n      pop\n        /* \"#utility.yul\":796:829   */\n      tag_156\n        /* \"#utility.yul\":823:828   */\n      dup2\n        /* \"#utility.yul\":796:829   */\n      tag_102\n      jump\t// in\n    tag_156:\n        /* \"#utility.yul\":696:835   */\n      swap3\n      swap2\n      pop\n      pop\n      jump\t// out\n        /* \"#utility.yul\":841:1170   */\n    tag_18:\n        /* \"#utility.yul\":900:906   */\n      0x00\n        /* \"#utility.yul\":949:951   */\n      0x20\n        /* \"#utility.yul\":937:946   */\n      dup3\n        /* \"#utility.yul\":928:935   */\n      dup5\n        /* \"#utility.yul\":924:947   */\n      sub\n        /* \"#utility.yul\":920:952   */\n      slt\n        /* \"#utility.yul\":917:1036   */\n      iszero\n      tag_158\n      jumpi\n        /* \"#utility.yul\":955:1034   */\n      tag_159\n      tag_98\n      jump\t// in\n    tag_159:\n        /* \"#utility.yul\":917:1036   */\n    tag_158:\n        /* \"#utility.yul\":1075:1076   */\n      0x00\n        /* \"#utility.yul\":1100:1153   */\n      tag_160\n        /* \"#utility.yul\":1145:1152   */\n      dup5\n        /* \"#utility.yul\":1136:1142   */\n      dup3\n        /* \"#utility.yul\":1125:1134   */\n      dup6\n        /* \"#utility.yul\":1121:1143   */\n      add\n        /* \"#utility.yul\":1100:1153   */\n      tag_103\n      jump\t// in\n    tag_160:\n        /* \"#utility.yul\":1090:1153   */\n      swap2\n      pop\n        /* \"#utility.yul\":1046:1163   */\n      pop\n        /* \"#utility.yul\":841:1170   */\n      swap3\n      swap2\n      pop\n      pop\n      jump\t// out\n        /* \"#utility.yul\":1176:1266   */\n    tag_104:\n        /* \"#utility.yul\":1210:1217   */\n      0x00\n        /* \"#utility.yul\":1253:1258   */\n      dup2\n        /* \"#utility.yul\":1246:1259   */\n      iszero\n        /* \"#utility.yul\":1239:1260   */\n      iszero\n        /* \"#utility.yul\":1228:1260   */\n      swap1\n      pop\n        /* \"#utility.yul\":1176:1266   */\n      swap2\n      swap1\n      pop\n      jump\t// out\n        /* \"#utility.yul\":1272:1381   */\n    tag_105:\n        /* \"#utility.yul\":1353:1374   */\n      tag_163\n        /* \"#utility.yul\":1368:1373   */\n      dup2\n        /* \"#utility.yul\":1353:1374   */\n      tag_104\n      jump\t// in\n    tag_163:\n        /* \"#utility.yul\":1348:1351   */\n      dup3\n        /* \"#utility.yul\":1341:1375   */\n      mstore\n        /* \"#utility.yul\":1272:1381   */\n      pop\n      pop\n      jump\t// out\n        /* \"#utility.yul\":1387:1597   */\n    tag_21:\n        /* \"#utility.yul\":1474:1478   */\n      0x00\n        /* \"#utility.yul\":1512:1514   */\n      0x20\n        /* \"#utility.yul\":1501:1510   */\n      dup3\n        /* \"#utility.yul\":1497:1515   */\n      add\n        /* \"#utility.yul\":1489:1515   */\n      swap1\n      pop\n        /* \"#utility.yul\":1525:1590   */\n      tag_165\n        /* \"#utility.yul\":1587:1588   */\n      0x00\n        /* \"#utility.yul\":1576:1585   */\n      dup4\n        /* \"#utility.yul\":1572:1589   */\n      add\n        /* \"#utility.yul\":1563:1569   */\n      dup5\n        /* \"#utility.yul\":1525:1590   */\n      tag_105\n      jump\t// in\n    tag_165:\n        /* \"#utility.yul\":1387:1597   */\n      swap3\n      swap2\n      pop\n      pop\n      jump\t// out\n        /* \"#utility.yul\":1603:1719   */\n    tag_106:\n        /* \"#utility.yul\":1673:1694   */\n      tag_167\n        /* \"#utility.yul\":1688:1693   */\n      dup2\n        /* \"#utility.yul\":1673:1694   */\n      tag_104\n      jump\t// in\n    tag_167:\n        /* \"#utility.yul\":1666:1671   */\n      dup2\n        /* \"#utility.yul\":1663:1695   */\n      eq\n        /* \"#utility.yul\":1653:1713   */\n      tag_168\n      jumpi\n        /* \"#utility.yul\":1709:1710   */\n      0x00\n        /* \"#utility.yul\":1706:1707   */\n      0x00\n        /* \"#utility.yul\":1699:1711   */\n      revert\n        /* \"#utility.yul\":1653:1713   */\n    tag_168:\n        /* \"#utility.yul\":1603:1719   */\n      pop\n      jump\t// out\n        /* \"#utility.yul\":1725:1858   */\n    tag_107:\n        /* \"#utility.yul\":1768:1773   */\n      0x00\n        /* \"#utility.yul\":1806:1812   */\n      dup2\n        /* \"#utility.yul\":1793:1813   */\n      calldataload\n        /* \"#utility.yul\":1784:1813   */\n      swap1\n      pop\n        /* \"#utility.yul\":1822:1852   */\n      tag_170\n        /* \"#utility.yul\":1846:1851   */\n      dup2\n        /* \"#utility.yul\":1822:1852   */\n      tag_106\n      jump\t// in\n    tag_170:\n        /* \"#utility.yul\":1725:1858   */\n      swap3\n      swap2\n      pop\n      pop\n      jump\t// out\n        /* \"#utility.yul\":1864:2332   */\n    tag_30:\n        /* \"#utility.yul\":1929:1935   */\n      0x00\n        /* \"#utility.yul\":1937:1943   */\n      0x00\n        /* \"#utility.yul\":1986:1988   */\n      0x40\n        /* \"#utility.yul\":1974:1983   */\n      dup4\n        /* \"#utility.yul\":1965:1972   */\n      dup6\n        /* \"#utility.yul\":1961:1984   */\n      sub\n        /* \"#utility.yul\":1957:1989   */\n      slt\n        /* \"#utility.yul\":1954:2073   */\n      iszero\n      tag_172\n      jumpi\n        /* \"#utility.yul\":1992:2071   */\n      tag_173\n      tag_98\n      jump\t// in\n    tag_173:\n        /* \"#utility.yul\":1954:2073   */\n    tag_172:\n        /* \"#utility.yul\":2112:2113   */\n      0x00\n        /* \"#utility.yul\":2137:2190   */\n      tag_174\n        /* \"#utility.yul\":2182:2189   */\n      dup6\n        /* \"#utility.yul\":2173:2179   */\n      dup3\n        /* \"#utility.yul\":2162:2171   */\n      dup7\n        /* \"#utility.yul\":2158:2180   */\n      add\n        /* \"#utility.yul\":2137:2190   */\n      tag_103\n      jump\t// in\n    tag_174:\n        /* \"#utility.yul\":2127:2190   */\n      swap3\n      pop\n        /* \"#utility.yul\":2083:2200   */\n      pop\n        /* \"#utility.yul\":2239:2241   */\n      0x20\n        /* \"#utility.yul\":2265:2315   */\n      tag_175\n        /* \"#utility.yul\":2307:2314   */\n      dup6\n        /* \"#utility.yul\":2298:2304   */\n      dup3\n        /* \"#utility.yul\":2287:2296   */\n      dup7\n        /* \"#utility.yul\":2283:2305   */\n      add\n        /* \"#utility.yul\":2265:2315   */\n      tag_107\n      jump\t// in\n    tag_175:\n        /* \"#utility.yul\":2255:2315   */\n      swap2\n      pop\n        /* \"#utility.yul\":2210:2325   */\n      pop\n        /* \"#utility.yul\":1864:2332   */\n      swap3\n      pop\n      swap3\n      swap1\n      pop\n      jump\t// out\n        /* \"#utility.yul\":2338:2415   */\n    tag_108:\n        /* \"#utility.yul\":2375:2382   */\n      0x00\n        /* \"#utility.yul\":2404:2409   */\n      dup2\n        /* \"#utility.yul\":2393:2409   */\n      swap1\n      pop\n        /* \"#utility.yul\":2338:2415   */\n      swap2\n      swap1\n      pop\n      jump\t// out\n        /* \"#utility.yul\":2421:2543   */\n    tag_109:\n        /* \"#utility.yul\":2494:2518   */\n      tag_178\n        /* \"#utility.yul\":2512:2517   */\n      dup2\n        /* \"#utility.yul\":2494:2518   */\n      tag_108\n      jump\t// in\n    tag_178:\n        /* \"#utility.yul\":2487:2492   */\n      dup2\n        /* \"#utility.yul\":2484:2519   */\n      eq\n        /* \"#utility.yul\":2474:2537   */\n      tag_179\n      jumpi\n        /* \"#utility.yul\":2533:2534   */\n      0x00\n        /* \"#utility.yul\":2530:2531   */\n      0x00\n        /* \"#utility.yul\":2523:2535   */\n      revert\n        /* \"#utility.yul\":2474:2537   */\n    tag_179:\n        /* \"#utility.yul\":2421:2543   */\n      pop\n      jump\t// out\n        /* \"#utility.yul\":2549:2688   */\n    tag_110:\n        /* \"#utility.yul\":2595:2600   */\n      0x00\n        /* \"#utility.yul\":2633:2639   */\n      dup2\n        /* \"#utility.yul\":2620:2640   */\n      calldataload\n        /* \"#utility.yul\":2611:2640   */\n      swap1\n      pop\n        /* \"#utility.yul\":2649:2682   */\n      tag_181\n        /* \"#utility.yul\":2676:2681   */\n      dup2\n        /* \"#utility.yul\":2649:2682   */\n      tag_109\n      jump\t// in\n    tag_181:\n        /* \"#utility.yul\":2549:2688   */\n      swap3\n      swap2\n      pop\n      pop\n      jump\t// out\n        /* \"#utility.yul\":2694:3168   */\n    tag_35:\n        /* \"#utility.yul\":2762:2768   */\n      0x00\n        /* \"#utility.yul\":2770:2776   */\n      0x00\n        /* \"#utility.yul\":2819:2821   */\n      0x40\n        /* \"#utility.yul\":2807:2816   */\n      dup4\n        /* \"#utility.yul\":2798:2805   */\n      dup6\n        /* \"#utility.yul\":2794:2817   */\n      sub\n        /* \"#utility.yul\":2790:2822   */\n      slt\n        /* \"#utility.yul\":2787:2906   */\n      iszero\n      tag_183\n      jumpi\n        /* \"#utility.yul\":2825:2904   */\n      tag_184\n      tag_98\n      jump\t// in\n    tag_184:\n        /* \"#utility.yul\":2787:2906   */\n    tag_183:\n        /* \"#utility.yul\":2945:2946   */\n      0x00\n        /* \"#utility.yul\":2970:3023   */\n      tag_185\n        /* \"#utility.yul\":3015:3022   */\n      dup6\n        /* \"#utility.yul\":3006:3012   */\n      dup3\n        /* \"#utility.yul\":2995:3004   */\n      dup7\n        /* \"#utility.yul\":2991:3013   */\n      add\n        /* \"#utility.yul\":2970:3023   */\n      tag_103\n      jump\t// in\n    tag_185:\n        /* \"#utility.yul\":2960:3023   */\n      swap3\n      pop\n        /* \"#utility.yul\":2916:3033   */\n      pop\n        /* \"#utility.yul\":3072:3074   */\n      0x20\n        /* \"#utility.yul\":3098:3151   */\n      tag_186\n        /* \"#utility.yul\":3143:3150   */\n      dup6\n        /* \"#utility.yul\":3134:3140   */\n      dup3\n        /* \"#utility.yul\":3123:3132   */\n      dup7\n        /* \"#utility.yul\":3119:3141   */\n      add\n        /* \"#utility.yul\":3098:3151   */\n      tag_110\n      jump\t// in\n    tag_186:\n        /* \"#utility.yul\":3088:3151   */\n      swap2\n      pop\n        /* \"#utility.yul\":3043:3161   */\n      pop\n        /* \"#utility.yul\":2694:3168   */\n      swap3\n      pop\n      swap3\n      swap1\n      pop\n      jump\t// out\n        /* \"#utility.yul\":3174:3292   */\n    tag_111:\n        /* \"#utility.yul\":3261:3285   */\n      tag_188\n        /* \"#utility.yul\":3279:3284   */\n      dup2\n        /* \"#utility.yul\":3261:3285   */\n      tag_108\n      jump\t// in\n    tag_188:\n        /* \"#utility.yul\":3256:3259   */\n      dup3\n        /* \"#utility.yul\":3249:3286   */\n      mstore\n        /* \"#utility.yul\":3174:3292   */\n      pop\n      pop\n      jump\t// out\n        /* \"#utility.yul\":3298:3520   */\n    tag_42:\n        /* \"#utility.yul\":3391:3395   */\n      0x00\n        /* \"#utility.yul\":3429:3431   */\n      0x20\n        /* \"#utility.yul\":3418:3427   */\n      dup3\n        /* \"#utility.yul\":3414:3432   */\n      add\n        /* \"#utility.yul\":3406:3432   */\n      swap1\n      pop\n        /* \"#utility.yul\":3442:3513   */\n      tag_190\n        /* \"#utility.yul\":3510:3511   */\n      0x00\n        /* \"#utility.yul\":3499:3508   */\n      dup4\n        /* \"#utility.yul\":3495:3512   */\n      add\n        /* \"#utility.yul\":3486:3492   */\n      dup5\n        /* \"#utility.yul\":3442:3513   */\n      tag_111\n      jump\t// in\n    tag_190:\n        /* \"#utility.yul\":3298:3520   */\n      swap3\n      swap2\n      pop\n      pop\n      jump\t// out\n        /* \"#utility.yul\":3526:3630   */\n    tag_112:\n        /* \"#utility.yul\":3571:3578   */\n      0x00\n        /* \"#utility.yul\":3600:3624   */\n      tag_192\n        /* \"#utility.yul\":3618:3623   */\n      dup3\n        /* \"#utility.yul\":3600:3624   */\n      tag_100\n      jump\t// in\n    tag_192:\n        /* \"#utility.yul\":3589:3624   */\n      swap1\n      pop\n        /* \"#utility.yul\":3526:3630   */\n      swap2\n      swap1\n      pop\n      jump\t// out\n        /* \"#utility.yul\":3636:3778   */\n    tag_113:\n        /* \"#utility.yul\":3739:3771   */\n      tag_194\n        /* \"#utility.yul\":3765:3770   */\n      dup2\n        /* \"#utility.yul\":3739:3771   */\n      tag_112\n      jump\t// in\n    tag_194:\n        /* \"#utility.yul\":3734:3737   */\n      dup3\n        /* \"#utility.yul\":3727:3772   */\n      mstore\n        /* \"#utility.yul\":3636:3778   */\n      pop\n      pop\n      jump\t// out\n        /* \"#utility.yul\":3784:4038   */\n    tag_51:\n        /* \"#utility.yul\":3893:3897   */\n      0x00\n        /* \"#utility.yul\":3931:3933   */\n      0x20\n        /* \"#utility.yul\":3920:3929   */\n      dup3\n        /* \"#utility.yul\":3916:3934   */\n      add\n        /* \"#utility.yul\":3908:3934   */\n      swap1\n      pop\n        /* \"#utility.yul\":3944:4031   */\n      tag_196\n        /* \"#utility.yul\":4028:4029   */\n      0x00\n        /* \"#utility.yul\":4017:4026   */\n      dup4\n        /* \"#utility.yul\":4013:4030   */\n      add\n        /* \"#utility.yul\":4004:4010   */\n      dup5\n        /* \"#utility.yul\":3944:4031   */\n      tag_113\n      jump\t// in\n    tag_196:\n        /* \"#utility.yul\":3784:4038   */\n      swap3\n      swap2\n      pop\n      pop\n      jump\t// out\n        /* \"#utility.yul\":4044:4182   */\n    tag_114:\n        /* \"#utility.yul\":4125:4157   */\n      tag_198\n        /* \"#utility.yul\":4151:4156   */\n      dup2\n        /* \"#utility.yul\":4125:4157   */\n      tag_112\n      jump\t// in\n    tag_198:\n        /* \"#utility.yul\":4118:4123   */\n      dup2\n        /* \"#utility.yul\":4115:4158   */\n      eq\n        /* \"#utility.yul\":4105:4176   */\n      tag_199\n      jumpi\n        /* \"#utility.yul\":4172:4173   */\n      0x00\n        /* \"#utility.yul\":4169:4170   */\n      0x00\n        /* \"#utility.yul\":4162:4174   */\n      revert\n        /* \"#utility.yul\":4105:4176   */\n    tag_199:\n        /* \"#utility.yul\":4044:4182   */\n      pop\n      jump\t// out\n        /* \"#utility.yul\":4188:4343   */\n    tag_115:\n        /* \"#utility.yul\":4242:4247   */\n      0x00\n        /* \"#utility.yul\":4280:4286   */\n      dup2\n        /* \"#utility.yul\":4267:4287   */\n      calldataload\n        /* \"#utility.yul\":4258:4287   */\n      swap1\n      pop\n        /* \"#utility.yul\":4296:4337   */\n      tag_201\n        /* \"#utility.yul\":4331:4336   */\n      dup2\n        /* \"#utility.yul\":4296:4337   */\n      tag_114\n      jump\t// in\n    tag_201:\n        /* \"#utility.yul\":4188:4343   */\n      swap3\n      swap2\n      pop\n      pop\n      jump\t// out\n        /* \"#utility.yul\":4349:4694   */\n    tag_55:\n        /* \"#utility.yul\":4416:4422   */\n      0x00\n        /* \"#utility.yul\":4465:4467   */\n      0x20\n        /* \"#utility.yul\":4453:4462   */\n      dup3\n        /* \"#utility.yul\":4444:4451   */\n      dup5\n        /* \"#utility.yul\":4440:4463   */\n      sub\n        /* \"#utility.yul\":4436:4468   */\n      slt\n        /* \"#utility.yul\":4433:4552   */\n      iszero\n      tag_203\n      jumpi\n        /* \"#utility.yul\":4471:4550   */\n      tag_204\n      tag_98\n      jump\t// in\n    tag_204:\n        /* \"#utility.yul\":4433:4552   */\n    tag_203:\n        /* \"#utility.yul\":4591:4592   */\n      0x00\n        /* \"#utility.yul\":4616:4677   */\n      tag_205\n        /* \"#utility.yul\":4669:4676   */\n      dup5\n        /* \"#utility.yul\":4660:4666   */\n      dup3\n        /* \"#utility.yul\":4649:4658   */\n      dup6\n        /* \"#utility.yul\":4645:4667   */\n      add\n        /* \"#utility.yul\":4616:4677   */\n      tag_115\n      jump\t// in\n    tag_205:\n        /* \"#utility.yul\":4606:4677   */\n      swap2\n      pop\n        /* \"#utility.yul\":4562:4687   */\n      pop\n        /* \"#utility.yul\":4349:4694   */\n      swap3\n      swap2\n      pop\n      pop\n      jump\t// out\n        /* \"#utility.yul\":4700:4817   */\n    tag_116:\n        /* \"#utility.yul\":4809:4810   */\n      0x00\n        /* \"#utility.yul\":4806:4807   */\n      0x00\n        /* \"#utility.yul\":4799:4811   */\n      revert\n        /* \"#utility.yul\":4823:4940   */\n    tag_117:\n        /* \"#utility.yul\":4932:4933   */\n      0x00\n        /* \"#utility.yul\":4929:4930   */\n      0x00\n        /* \"#utility.yul\":4922:4934   */\n      revert\n        /* \"#utility.yul\":4946:5048   */\n    tag_118:\n        /* \"#utility.yul\":4987:4993   */\n      0x00\n        /* \"#utility.yul\":5038:5040   */\n      0x1f\n        /* \"#utility.yul\":5034:5041   */\n      not\n        /* \"#utility.yul\":5029:5031   */\n      0x1f\n        /* \"#utility.yul\":5022:5027   */\n      dup4\n        /* \"#utility.yul\":5018:5032   */\n      add\n        /* \"#utility.yul\":5014:5042   */\n      and\n        /* \"#utility.yul\":5004:5042   */\n      swap1\n      pop\n        /* \"#utility.yul\":4946:5048   */\n      swap2\n      swap1\n      pop\n      jump\t// out\n        /* \"#utility.yul\":5054:5234   */\n    tag_119:\n        /* \"#utility.yul\":5102:5179   */\n      0x4e487b7100000000000000000000000000000000000000000000000000000000\n        /* \"#utility.yul\":5099:5100   */\n      0x00\n        /* \"#utility.yul\":5092:5180   */\n      mstore\n        /* \"#utility.yul\":5199:5203   */\n      0x41\n        /* \"#utility.yul\":5196:5197   */\n      0x04\n        /* \"#utility.yul\":5189:5204   */\n      mstore\n        /* \"#utility.yul\":5223:5227   */\n      0x24\n        /* \"#utility.yul\":5220:5221   */\n      0x00\n        /* \"#utility.yul\":5213:5228   */\n      revert\n        /* \"#utility.yul\":5240:5521   */\n    tag_120:\n        /* \"#utility.yul\":5323:5350   */\n      tag_211\n        /* \"#utility.yul\":5345:5349   */\n      dup3\n        /* \"#utility.yul\":5323:5350   */\n      tag_118\n      jump\t// in\n    tag_211:\n        /* \"#utility.yul\":5315:5321   */\n      dup2\n        /* \"#utility.yul\":5311:5351   */\n      add\n        /* \"#utility.yul\":5453:5459   */\n      dup2\n        /* \"#utility.yul\":5441:5451   */\n      dup2\n        /* \"#utility.yul\":5438:5460   */\n      lt\n        /* \"#utility.yul\":5417:5435   */\n      0xffffffffffffffff\n        /* \"#utility.yul\":5405:5415   */\n      dup3\n        /* \"#utility.yul\":5402:5436   */\n      gt\n        /* \"#utility.yul\":5399:5461   */\n      or\n        /* \"#utility.yul\":5396:5484   */\n      iszero\n      tag_212\n      jumpi\n        /* \"#utility.yul\":5464:5482   */\n      tag_213\n      tag_119\n      jump\t// in\n    tag_213:\n        /* \"#utility.yul\":5396:5484   */\n    tag_212:\n        /* \"#utility.yul\":5504:5514   */\n      dup1\n        /* \"#utility.yul\":5500:5502   */\n      0x40\n        /* \"#utility.yul\":5493:5515   */\n      mstore\n        /* \"#utility.yul\":5283:5521   */\n      pop\n        /* \"#utility.yul\":5240:5521   */\n      pop\n      pop\n      jump\t// out\n        /* \"#utility.yul\":5527:5656   */\n    tag_121:\n        /* \"#utility.yul\":5561:5567   */\n      0x00\n        /* \"#utility.yul\":5588:5608   */\n      tag_215\n      tag_97\n      jump\t// in\n    tag_215:\n        /* \"#utility.yul\":5578:5608   */\n      swap1\n      pop\n        /* \"#utility.yul\":5617:5650   */\n      tag_216\n        /* \"#utility.yul\":5645:5649   */\n      dup3\n        /* \"#utility.yul\":5637:5643   */\n      dup3\n        /* \"#utility.yul\":5617:5650   */\n      tag_120\n      jump\t// in\n    tag_216:\n        /* \"#utility.yul\":5527:5656   */\n      swap2\n      swap1\n      pop\n      jump\t// out\n        /* \"#utility.yul\":5662:5969   */\n    tag_122:\n        /* \"#utility.yul\":5723:5727   */\n      0x00\n        /* \"#utility.yul\":5813:5831   */\n      0xffffffffffffffff\n        /* \"#utility.yul\":5805:5811   */\n      dup3\n        /* \"#utility.yul\":5802:5832   */\n      gt\n        /* \"#utility.yul\":5799:5855   */\n      iszero\n      tag_218\n      jumpi\n        /* \"#utility.yul\":5835:5853   */\n      tag_219\n      tag_119\n      jump\t// in\n    tag_219:\n        /* \"#utility.yul\":5799:5855   */\n    tag_218:\n        /* \"#utility.yul\":5873:5902   */\n      tag_220\n        /* \"#utility.yul\":5895:5901   */\n      dup3\n        /* \"#utility.yul\":5873:5902   */\n      tag_118\n      jump\t// in\n    tag_220:\n        /* \"#utility.yul\":5865:5902   */\n      swap1\n      pop\n        /* \"#utility.yul\":5957:5961   */\n      0x20\n        /* \"#utility.yul\":5951:5955   */\n      dup2\n        /* \"#utility.yul\":5947:5962   */\n      add\n        /* \"#utility.yul\":5939:5962   */\n      swap1\n      pop\n        /* \"#utility.yul\":5662:5969   */\n      swap2\n      swap1\n      pop\n      jump\t// out\n        /* \"#utility.yul\":5975:6123   */\n    tag_123:\n        /* \"#utility.yul\":6073:6079   */\n      dup3\n        /* \"#utility.yul\":6068:6071   */\n      dup2\n        /* \"#utility.yul\":6063:6066   */\n      dup4\n        /* \"#utility.yul\":6050:6080   */\n      calldatacopy\n        /* \"#utility.yul\":6114:6115   */\n      0x00\n        /* \"#utility.yul\":6105:6111   */\n      dup4\n        /* \"#utility.yul\":6100:6103   */\n      dup4\n        /* \"#utility.yul\":6096:6112   */\n      add\n        /* \"#utility.yul\":6089:6116   */\n      mstore\n        /* \"#utility.yul\":5975:6123   */\n      pop\n      pop\n      pop\n      jump\t// out\n        /* \"#utility.yul\":6129:6552   */\n    tag_124:\n        /* \"#utility.yul\":6206:6211   */\n      0x00\n        /* \"#utility.yul\":6231:6296   */\n      tag_223\n        /* \"#utility.yul\":6247:6295   */\n      tag_224\n        /* \"#utility.yul\":6288:6294   */\n      dup5\n        /* \"#utility.yul\":6247:6295   */\n      tag_122\n      jump\t// in\n    tag_224:\n        /* \"#utility.yul\":6231:6296   */\n      tag_121\n      jump\t// in\n    tag_223:\n        /* \"#utility.yul\":6222:6296   */\n      swap1\n      pop\n        /* \"#utility.yul\":6319:6325   */\n      dup3\n        /* \"#utility.yul\":6312:6317   */\n      dup2\n        /* \"#utility.yul\":6305:6326   */\n      mstore\n        /* \"#utility.yul\":6357:6361   */\n      0x20\n        /* \"#utility.yul\":6350:6355   */\n      dup2\n        /* \"#utility.yul\":6346:6362   */\n      add\n        /* \"#utility.yul\":6395:6398   */\n      dup5\n        /* \"#utility.yul\":6386:6392   */\n      dup5\n        /* \"#utility.yul\":6381:6384   */\n      dup5\n        /* \"#utility.yul\":6377:6393   */\n      add\n        /* \"#utility.yul\":6374:6399   */\n      gt\n        /* \"#utility.yul\":6371:6483   */\n      iszero\n      tag_225\n      jumpi\n        /* \"#utility.yul\":6402:6481   */\n      tag_226\n      tag_117\n      jump\t// in\n    tag_226:\n        /* \"#utility.yul\":6371:6483   */\n    tag_225:\n        /* \"#utility.yul\":6492:6546   */\n      tag_227\n        /* \"#utility.yul\":6539:6545   */\n      dup5\n        /* \"#utility.yul\":6534:6537   */\n      dup3\n        /* \"#utility.yul\":6529:6532   */\n      dup6\n        /* \"#utility.yul\":6492:6546   */\n      tag_123\n      jump\t// in\n    tag_227:\n        /* \"#utility.yul\":6212:6552   */\n      pop\n        /* \"#utility.yul\":6129:6552   */\n      swap4\n      swap3\n      pop\n      pop\n      pop\n      jump\t// out\n        /* \"#utility.yul\":6571:6909   */\n    tag_125:\n        /* \"#utility.yul\":6626:6631   */\n      0x00\n        /* \"#utility.yul\":6675:6678   */\n      dup3\n        /* \"#utility.yul\":6668:6672   */\n      0x1f\n        /* \"#utility.yul\":6660:6666   */\n      dup4\n        /* \"#utility.yul\":6656:6673   */\n      add\n        /* \"#utility.yul\":6652:6679   */\n      slt\n        /* \"#utility.yul\":6642:6764   */\n      tag_229\n      jumpi\n        /* \"#utility.yul\":6683:6762   */\n      tag_230\n      tag_116\n      jump\t// in\n    tag_230:\n        /* \"#utility.yul\":6642:6764   */\n    tag_229:\n        /* \"#utility.yul\":6800:6806   */\n      dup2\n        /* \"#utility.yul\":6787:6807   */\n      calldataload\n        /* \"#utility.yul\":6825:6903   */\n      tag_231\n        /* \"#utility.yul\":6899:6902   */\n      dup5\n        /* \"#utility.yul\":6891:6897   */\n      dup3\n        /* \"#utility.yul\":6884:6888   */\n      0x20\n        /* \"#utility.yul\":6876:6882   */\n      dup7\n        /* \"#utility.yul\":6872:6889   */\n      add\n        /* \"#utility.yul\":6825:6903   */\n      tag_124\n      jump\t// in\n    tag_231:\n        /* \"#utility.yul\":6816:6903   */\n      swap2\n      pop\n        /* \"#utility.yul\":6632:6909   */\n      pop\n        /* \"#utility.yul\":6571:6909   */\n      swap3\n      swap2\n      pop\n      pop\n      jump\t// out\n        /* \"#utility.yul\":6915:7728   */\n    tag_60:\n        /* \"#utility.yul\":7009:7015   */\n      0x00\n        /* \"#utility.yul\":7017:7023   */\n      0x00\n        /* \"#utility.yul\":7025:7031   */\n      0x00\n        /* \"#utility.yul\":7074:7076   */\n      0x60\n        /* \"#utility.yul\":7062:7071   */\n      dup5\n        /* \"#utility.yul\":7053:7060   */\n      dup7\n        /* \"#utility.yul\":7049:7072   */\n      sub\n        /* \"#utility.yul\":7045:7077   */\n      slt\n        /* \"#utility.yul\":7042:7161   */\n      iszero\n      tag_233\n      jumpi\n        /* \"#utility.yul\":7080:7159   */\n      tag_234\n      tag_98\n      jump\t// in\n    tag_234:\n        /* \"#utility.yul\":7042:7161   */\n    tag_233:\n        /* \"#utility.yul\":7200:7201   */\n      0x00\n        /* \"#utility.yul\":7225:7286   */\n      tag_235\n        /* \"#utility.yul\":7278:7285   */\n      dup7\n        /* \"#utility.yul\":7269:7275   */\n      dup3\n        /* \"#utility.yul\":7258:7267   */\n      dup8\n        /* \"#utility.yul\":7254:7276   */\n      add\n        /* \"#utility.yul\":7225:7286   */\n      tag_115\n      jump\t// in\n    tag_235:\n        /* \"#utility.yul\":7215:7286   */\n      swap4\n      pop\n        /* \"#utility.yul\":7171:7296   */\n      pop\n        /* \"#utility.yul\":7335:7337   */\n      0x20\n        /* \"#utility.yul\":7361:7414   */\n      tag_236\n        /* \"#utility.yul\":7406:7413   */\n      dup7\n        /* \"#utility.yul\":7397:7403   */\n      dup3\n        /* \"#utility.yul\":7386:7395   */\n      dup8\n        /* \"#utility.yul\":7382:7404   */\n      add\n        /* \"#utility.yul\":7361:7414   */\n      tag_110\n      jump\t// in\n    tag_236:\n        /* \"#utility.yul\":7351:7414   */\n      swap3\n      pop\n        /* \"#utility.yul\":7306:7424   */\n      pop\n        /* \"#utility.yul\":7491:7493   */\n      0x40\n        /* \"#utility.yul\":7480:7489   */\n      dup5\n        /* \"#utility.yul\":7476:7494   */\n      add\n        /* \"#utility.yul\":7463:7495   */\n      calldataload\n        /* \"#utility.yul\":7522:7540   */\n      0xffffffffffffffff\n        /* \"#utility.yul\":7514:7520   */\n      dup2\n        /* \"#utility.yul\":7511:7541   */\n      gt\n        /* \"#utility.yul\":7508:7625   */\n      iszero\n      tag_237\n      jumpi\n        /* \"#utility.yul\":7544:7623   */\n      tag_238\n      tag_99\n      jump\t// in\n    tag_238:\n        /* \"#utility.yul\":7508:7625   */\n    tag_237:\n        /* \"#utility.yul\":7649:7711   */\n      tag_239\n        /* \"#utility.yul\":7703:7710   */\n      dup7\n        /* \"#utility.yul\":7694:7700   */\n      dup3\n        /* \"#utility.yul\":7683:7692   */\n      dup8\n        /* \"#utility.yul\":7679:7701   */\n      add\n        /* \"#utility.yul\":7649:7711   */\n      tag_125\n      jump\t// in\n    tag_239:\n        /* \"#utility.yul\":7639:7711   */\n      swap2\n      pop\n        /* \"#utility.yul\":7434:7721   */\n      pop\n        /* \"#utility.yul\":6915:7728   */\n      swap3\n      pop\n      swap3\n      pop\n      swap3\n      jump\t// out\n        /* \"#utility.yul\":7734:7832   */\n    tag_126:\n        /* \"#utility.yul\":7785:7791   */\n      0x00\n        /* \"#utility.yul\":7819:7824   */\n      dup2\n        /* \"#utility.yul\":7813:7825   */\n      mload\n        /* \"#utility.yul\":7803:7825   */\n      swap1\n      pop\n        /* \"#utility.yul\":7734:7832   */\n      swap2\n      swap1\n      pop\n      jump\t// out\n        /* \"#utility.yul\":7838:8006   */\n    tag_127:\n        /* \"#utility.yul\":7921:7932   */\n      0x00\n        /* \"#utility.yul\":7955:7961   */\n      dup3\n        /* \"#utility.yul\":7950:7953   */\n      dup3\n        /* \"#utility.yul\":7943:7962   */\n      mstore\n        /* \"#utility.yul\":7995:7999   */\n      0x20\n        /* \"#utility.yul\":7990:7993   */\n      dup3\n        /* \"#utility.yul\":7986:8000   */\n      add\n        /* \"#utility.yul\":7971:8000   */\n      swap1\n      pop\n        /* \"#utility.yul\":7838:8006   */\n      swap3\n      swap2\n      pop\n      pop\n      jump\t// out\n        /* \"#utility.yul\":8012:8151   */\n    tag_128:\n        /* \"#utility.yul\":8101:8107   */\n      dup3\n        /* \"#utility.yul\":8096:8099   */\n      dup2\n        /* \"#utility.yul\":8091:8094   */\n      dup4\n        /* \"#utility.yul\":8085:8108   */\n      mcopy\n        /* \"#utility.yul\":8142:8143   */\n      0x00\n        /* \"#utility.yul\":8133:8139   */\n      dup4\n        /* \"#utility.yul\":8128:8131   */\n      dup4\n        /* \"#utility.yul\":8124:8140   */\n      add\n        /* \"#utility.yul\":8117:8144   */\n      mstore\n        /* \"#utility.yul\":8012:8151   */\n      pop\n      pop\n      pop\n      jump\t// out\n        /* \"#utility.yul\":8157:8530   */\n    tag_129:\n        /* \"#utility.yul\":8243:8246   */\n      0x00\n        /* \"#utility.yul\":8271:8309   */\n      tag_244\n        /* \"#utility.yul\":8303:8308   */\n      dup3\n        /* \"#utility.yul\":8271:8309   */\n      tag_126\n      jump\t// in\n    tag_244:\n        /* \"#utility.yul\":8325:8395   */\n      tag_245\n        /* \"#utility.yul\":8388:8394   */\n      dup2\n        /* \"#utility.yul\":8383:8386   */\n      dup6\n        /* \"#utility.yul\":8325:8395   */\n      tag_127\n      jump\t// in\n    tag_245:\n        /* \"#utility.yul\":8318:8395   */\n      swap4\n      pop\n        /* \"#utility.yul\":8404:8469   */\n      tag_246\n        /* \"#utility.yul\":8462:8468   */\n      dup2\n        /* \"#utility.yul\":8457:8460   */\n      dup6\n        /* \"#utility.yul\":8450:8454   */\n      0x20\n        /* \"#utility.yul\":8443:8448   */\n      dup7\n        /* \"#utility.yul\":8439:8455   */\n      add\n        /* \"#utility.yul\":8404:8469   */\n      tag_128\n      jump\t// in\n    tag_246:\n        /* \"#utility.yul\":8494:8523   */\n      tag_247\n        /* \"#utility.yul\":8516:8522   */\n      dup2\n        /* \"#utility.yul\":8494:8523   */\n      tag_118\n      jump\t// in\n    tag_247:\n        /* \"#utility.yul\":8489:8492   */\n      dup5\n        /* \"#utility.yul\":8485:8524   */\n      add\n        /* \"#utility.yul\":8478:8524   */\n      swap2\n      pop\n        /* \"#utility.yul\":8247:8530   */\n      pop\n        /* \"#utility.yul\":8157:8530   */\n      swap3\n      swap2\n      pop\n      pop\n      jump\t// out\n        /* \"#utility.yul\":8536:8845   */\n    tag_63:\n        /* \"#utility.yul\":8647:8651   */\n      0x00\n        /* \"#utility.yul\":8685:8687   */\n      0x20\n        /* \"#utility.yul\":8674:8683   */\n      dup3\n        /* \"#utility.yul\":8670:8688   */\n      add\n        /* \"#utility.yul\":8662:8688   */\n      swap1\n      pop\n        /* \"#utility.yul\":8734:8743   */\n      dup2\n        /* \"#utility.yul\":8728:8732   */\n      dup2\n        /* \"#utility.yul\":8724:8744   */\n      sub\n        /* \"#utility.yul\":8720:8721   */\n      0x00\n        /* \"#utility.yul\":8709:8718   */\n      dup4\n        /* \"#utility.yul\":8705:8722   */\n      add\n        /* \"#utility.yul\":8698:8745   */\n      mstore\n        /* \"#utility.yul\":8762:8838   */\n      tag_249\n        /* \"#utility.yul\":8833:8837   */\n      dup2\n        /* \"#utility.yul\":8824:8830   */\n      dup5\n        /* \"#utility.yul\":8762:8838   */\n      tag_129\n      jump\t// in\n    tag_249:\n        /* \"#utility.yul\":8754:8838   */\n      swap1\n      pop\n        /* \"#utility.yul\":8536:8845   */\n      swap3\n      swap2\n      pop\n      pop\n      jump\t// out\n        /* \"#utility.yul\":8851:9020   */\n    tag_130:\n        /* \"#utility.yul\":8935:8946   */\n      0x00\n        /* \"#utility.yul\":8969:8975   */\n      dup3\n        /* \"#utility.yul\":8964:8967   */\n      dup3\n        /* \"#utility.yul\":8957:8976   */\n      mstore\n        /* \"#utility.yul\":9009:9013   */\n      0x20\n        /* \"#utility.yul\":9004:9007   */\n      dup3\n        /* \"#utility.yul\":9000:9014   */\n      add\n        /* \"#utility.yul\":8985:9014   */\n      swap1\n      pop\n        /* \"#utility.yul\":8851:9020   */\n      swap3\n      swap2\n      pop\n      pop\n      jump\t// out\n        /* \"#utility.yul\":9026:9197   */\n    tag_131:\n        /* \"#utility.yul\":9166:9189   */\n      0x596f7520617265206e6f7420746865206f776e65720000000000000000000000\n        /* \"#utility.yul\":9162:9163   */\n      0x00\n        /* \"#utility.yul\":9154:9160   */\n      dup3\n        /* \"#utility.yul\":9150:9164   */\n      add\n        /* \"#utility.yul\":9143:9190   */\n      mstore\n        /* \"#utility.yul\":9026:9197   */\n      pop\n      jump\t// out\n        /* \"#utility.yul\":9203:9569   */\n    tag_132:\n        /* \"#utility.yul\":9345:9348   */\n      0x00\n        /* \"#utility.yul\":9366:9433   */\n      tag_253\n        /* \"#utility.yul\":9430:9432   */\n      0x15\n        /* \"#utility.yul\":9425:9428   */\n      dup4\n        /* \"#utility.yul\":9366:9433   */\n      tag_130\n      jump\t// in\n    tag_253:\n        /* \"#utility.yul\":9359:9433   */\n      swap2\n      pop\n        /* \"#utility.yul\":9442:9535   */\n      tag_254\n        /* \"#utility.yul\":9531:9534   */\n      dup3\n        /* \"#utility.yul\":9442:9535   */\n      tag_131\n      jump\t// in\n    tag_254:\n        /* \"#utility.yul\":9560:9562   */\n      0x20\n        /* \"#utility.yul\":9555:9558   */\n      dup3\n        /* \"#utility.yul\":9551:9563   */\n      add\n        /* \"#utility.yul\":9544:9563   */\n      swap1\n      pop\n        /* \"#utility.yul\":9203:9569   */\n      swap2\n      swap1\n      pop\n      jump\t// out\n        /* \"#utility.yul\":9575:9994   */\n    tag_67:\n        /* \"#utility.yul\":9741:9745   */\n      0x00\n        /* \"#utility.yul\":9779:9781   */\n      0x20\n        /* \"#utility.yul\":9768:9777   */\n      dup3\n        /* \"#utility.yul\":9764:9782   */\n      add\n        /* \"#utility.yul\":9756:9782   */\n      swap1\n      pop\n        /* \"#utility.yul\":9828:9837   */\n      dup2\n        /* \"#utility.yul\":9822:9826   */\n      dup2\n        /* \"#utility.yul\":9818:9838   */\n      sub\n        /* \"#utility.yul\":9814:9815   */\n      0x00\n        /* \"#utility.yul\":9803:9812   */\n      dup4\n        /* \"#utility.yul\":9799:9816   */\n      add\n        /* \"#utility.yul\":9792:9839   */\n      mstore\n        /* \"#utility.yul\":9856:9987   */\n      tag_256\n        /* \"#utility.yul\":9982:9986   */\n      dup2\n        /* \"#utility.yul\":9856:9987   */\n      tag_132\n      jump\t// in\n    tag_256:\n        /* \"#utility.yul\":9848:9987   */\n      swap1\n      pop\n        /* \"#utility.yul\":9575:9994   */\n      swap2\n      swap1\n      pop\n      jump\t// out\n        /* \"#utility.yul\":10000:10222   */\n    tag_133:\n        /* \"#utility.yul\":10140:10174   */\n      0x596f7520617265206e6f7420677561726469616e206f6620746869732077616c\n        /* \"#utility.yul\":10136:10137   */\n      0x00\n        /* \"#utility.yul\":10128:10134   */\n      dup3\n        /* \"#utility.yul\":10124:10138   */\n      add\n        /* \"#utility.yul\":10117:10175   */\n      mstore\n        /* \"#utility.yul\":10209:10214   */\n      0x6c65740000000000000000000000000000000000000000000000000000000000\n        /* \"#utility.yul\":10204:10206   */\n      0x20\n        /* \"#utility.yul\":10196:10202   */\n      dup3\n        /* \"#utility.yul\":10192:10207   */\n      add\n        /* \"#utility.yul\":10185:10215   */\n      mstore\n        /* \"#utility.yul\":10000:10222   */\n      pop\n      jump\t// out\n        /* \"#utility.yul\":10228:10594   */\n    tag_134:\n        /* \"#utility.yul\":10370:10373   */\n      0x00\n        /* \"#utility.yul\":10391:10458   */\n      tag_259\n        /* \"#utility.yul\":10455:10457   */\n      0x23\n        /* \"#utility.yul\":10450:10453   */\n      dup4\n        /* \"#utility.yul\":10391:10458   */\n      tag_130\n      jump\t// in\n    tag_259:\n        /* \"#utility.yul\":10384:10458   */\n      swap2\n      pop\n        /* \"#utility.yul\":10467:10560   */\n      tag_260\n        /* \"#utility.yul\":10556:10559   */\n      dup3\n        /* \"#utility.yul\":10467:10560   */\n      tag_133\n      jump\t// in\n    tag_260:\n        /* \"#utility.yul\":10585:10587   */\n      0x40\n        /* \"#utility.yul\":10580:10583   */\n      dup3\n        /* \"#utility.yul\":10576:10588   */\n      add\n        /* \"#utility.yul\":10569:10588   */\n      swap1\n      pop\n        /* \"#utility.yul\":10228:10594   */\n      swap2\n      swap1\n      pop\n      jump\t// out\n        /* \"#utility.yul\":10600:11019   */\n    tag_76:\n        /* \"#utility.yul\":10766:10770   */\n      0x00\n        /* \"#utility.yul\":10804:10806   */\n      0x20\n        /* \"#utility.yul\":10793:10802   */\n      dup3\n        /* \"#utility.yul\":10789:10807   */\n      add\n        /* \"#utility.yul\":10781:10807   */\n      swap1\n      pop\n        /* \"#utility.yul\":10853:10862   */\n      dup2\n        /* \"#utility.yul\":10847:10851   */\n      dup2\n        /* \"#utility.yul\":10843:10863   */\n      sub\n        /* \"#utility.yul\":10839:10840   */\n      0x00\n        /* \"#utility.yul\":10828:10837   */\n      dup4\n        /* \"#utility.yul\":10824:10841   */\n      add\n        /* \"#utility.yul\":10817:10864   */\n      mstore\n        /* \"#utility.yul\":10881:11012   */\n      tag_262\n        /* \"#utility.yul\":11007:11011   */\n      dup2\n        /* \"#utility.yul\":10881:11012   */\n      tag_134\n      jump\t// in\n    tag_262:\n        /* \"#utility.yul\":10873:11012   */\n      swap1\n      pop\n        /* \"#utility.yul\":10600:11019   */\n      swap2\n      swap1\n      pop\n      jump\t// out\n        /* \"#utility.yul\":11025:11248   */\n    tag_135:\n        /* \"#utility.yul\":11165:11199   */\n      0x596f7520616c726561647920766f74656420666f722074686973206e6577206f\n        /* \"#utility.yul\":11161:11162   */\n      0x00\n        /* \"#utility.yul\":11153:11159   */\n      dup3\n        /* \"#utility.yul\":11149:11163   */\n      add\n        /* \"#utility.yul\":11142:11200   */\n      mstore\n        /* \"#utility.yul\":11234:11240   */\n      0x776e657200000000000000000000000000000000000000000000000000000000\n        /* \"#utility.yul\":11229:11231   */\n      0x20\n        /* \"#utility.yul\":11221:11227   */\n      dup3\n        /* \"#utility.yul\":11217:11232   */\n      add\n        /* \"#utility.yul\":11210:11241   */\n      mstore\n        /* \"#utility.yul\":11025:11248   */\n      pop\n      jump\t// out\n        /* \"#utility.yul\":11254:11620   */\n    tag_136:\n        /* \"#utility.yul\":11396:11399   */\n      0x00\n        /* \"#utility.yul\":11417:11484   */\n      tag_265\n        /* \"#utility.yul\":11481:11483   */\n      0x24\n        /* \"#utility.yul\":11476:11479   */\n      dup4\n        /* \"#utility.yul\":11417:11484   */\n      tag_130\n      jump\t// in\n    tag_265:\n        /* \"#utility.yul\":11410:11484   */\n      swap2\n      pop\n        /* \"#utility.yul\":11493:11586   */\n      tag_266\n        /* \"#utility.yul\":11582:11585   */\n      dup3\n        /* \"#utility.yul\":11493:11586   */\n      tag_135\n      jump\t// in\n    tag_266:\n        /* \"#utility.yul\":11611:11613   */\n      0x40\n        /* \"#utility.yul\":11606:11609   */\n      dup3\n        /* \"#utility.yul\":11602:11614   */\n      add\n        /* \"#utility.yul\":11595:11614   */\n      swap1\n      pop\n        /* \"#utility.yul\":11254:11620   */\n      swap2\n      swap1\n      pop\n      jump\t// out\n        /* \"#utility.yul\":11626:12045   */\n    tag_79:\n        /* \"#utility.yul\":11792:11796   */\n      0x00\n        /* \"#utility.yul\":11830:11832   */\n      0x20\n        /* \"#utility.yul\":11819:11828   */\n      dup3\n        /* \"#utility.yul\":11815:11833   */\n      add\n        /* \"#utility.yul\":11807:11833   */\n      swap1\n      pop\n        /* \"#utility.yul\":11879:11888   */\n      dup2\n        /* \"#utility.yul\":11873:11877   */\n      dup2\n        /* \"#utility.yul\":11869:11889   */\n      sub\n        /* \"#utility.yul\":11865:11866   */\n      0x00\n        /* \"#utility.yul\":11854:11863   */\n      dup4\n        /* \"#utility.yul\":11850:11867   */\n      add\n        /* \"#utility.yul\":11843:11890   */\n      mstore\n        /* \"#utility.yul\":11907:12038   */\n      tag_268\n        /* \"#utility.yul\":12033:12037   */\n      dup2\n        /* \"#utility.yul\":11907:12038   */\n      tag_136\n      jump\t// in\n    tag_268:\n        /* \"#utility.yul\":11899:12038   */\n      swap1\n      pop\n        /* \"#utility.yul\":11626:12045   */\n      swap2\n      swap1\n      pop\n      jump\t// out\n        /* \"#utility.yul\":12051:12343   */\n    tag_137:\n        /* \"#utility.yul\":12191:12225   */\n      0x596f7520617265206e6f7420616c6c6f77656420746f2073656e6420616e7974\n        /* \"#utility.yul\":12187:12188   */\n      0x00\n        /* \"#utility.yul\":12179:12185   */\n      dup3\n        /* \"#utility.yul\":12175:12189   */\n      add\n        /* \"#utility.yul\":12168:12226   */\n      mstore\n        /* \"#utility.yul\":12260:12294   */\n      0x68696e2066726f6d2074686973207361727420636f6e74726163742061626f72\n        /* \"#utility.yul\":12255:12257   */\n      0x20\n        /* \"#utility.yul\":12247:12253   */\n      dup3\n        /* \"#utility.yul\":12243:12258   */\n      add\n        /* \"#utility.yul\":12236:12295   */\n      mstore\n        /* \"#utility.yul\":12329:12335   */\n      0x74696e6700000000000000000000000000000000000000000000000000000000\n        /* \"#utility.yul\":12324:12326   */\n      0x40\n        /* \"#utility.yul\":12316:12322   */\n      dup3\n        /* \"#utility.yul\":12312:12327   */\n      add\n        /* \"#utility.yul\":12305:12336   */\n      mstore\n        /* \"#utility.yul\":12051:12343   */\n      pop\n      jump\t// out\n        /* \"#utility.yul\":12349:12715   */\n    tag_138:\n        /* \"#utility.yul\":12491:12494   */\n      0x00\n        /* \"#utility.yul\":12512:12579   */\n      tag_271\n        /* \"#utility.yul\":12576:12578   */\n      0x44\n        /* \"#utility.yul\":12571:12574   */\n      dup4\n        /* \"#utility.yul\":12512:12579   */\n      tag_130\n      jump\t// in\n    tag_271:\n        /* \"#utility.yul\":12505:12579   */\n      swap2\n      pop\n        /* \"#utility.yul\":12588:12681   */\n      tag_272\n        /* \"#utility.yul\":12677:12680   */\n      dup3\n        /* \"#utility.yul\":12588:12681   */\n      tag_137\n      jump\t// in\n    tag_272:\n        /* \"#utility.yul\":12706:12708   */\n      0x60\n        /* \"#utility.yul\":12701:12704   */\n      dup3\n        /* \"#utility.yul\":12697:12709   */\n      add\n        /* \"#utility.yul\":12690:12709   */\n      swap1\n      pop\n        /* \"#utility.yul\":12349:12715   */\n      swap2\n      swap1\n      pop\n      jump\t// out\n        /* \"#utility.yul\":12721:13140   */\n    tag_85:\n        /* \"#utility.yul\":12887:12891   */\n      0x00\n        /* \"#utility.yul\":12925:12927   */\n      0x20\n        /* \"#utility.yul\":12914:12923   */\n      dup3\n        /* \"#utility.yul\":12910:12928   */\n      add\n        /* \"#utility.yul\":12902:12928   */\n      swap1\n      pop\n        /* \"#utility.yul\":12974:12983   */\n      dup2\n        /* \"#utility.yul\":12968:12972   */\n      dup2\n        /* \"#utility.yul\":12964:12984   */\n      sub\n        /* \"#utility.yul\":12960:12961   */\n      0x00\n        /* \"#utility.yul\":12949:12958   */\n      dup4\n        /* \"#utility.yul\":12945:12962   */\n      add\n        /* \"#utility.yul\":12938:12985   */\n      mstore\n        /* \"#utility.yul\":13002:13133   */\n      tag_274\n        /* \"#utility.yul\":13128:13132   */\n      dup2\n        /* \"#utility.yul\":13002:13133   */\n      tag_138\n      jump\t// in\n    tag_274:\n        /* \"#utility.yul\":12994:13133   */\n      swap1\n      pop\n        /* \"#utility.yul\":12721:13140   */\n      swap2\n      swap1\n      pop\n      jump\t// out\n        /* \"#utility.yul\":13146:13318   */\n    tag_139:\n        /* \"#utility.yul\":13286:13310   */\n      0x496e73756666696369656e7420616c6c6f77616e636500000000000000000000\n        /* \"#utility.yul\":13282:13283   */\n      0x00\n        /* \"#utility.yul\":13274:13280   */\n      dup3\n        /* \"#utility.yul\":13270:13284   */\n      add\n        /* \"#utility.yul\":13263:13311   */\n      mstore\n        /* \"#utility.yul\":13146:13318   */\n      pop\n      jump\t// out\n        /* \"#utility.yul\":13324:13690   */\n    tag_140:\n        /* \"#utility.yul\":13466:13469   */\n      0x00\n        /* \"#utility.yul\":13487:13554   */\n      tag_277\n        /* \"#utility.yul\":13551:13553   */\n      0x16\n        /* \"#utility.yul\":13546:13549   */\n      dup4\n        /* \"#utility.yul\":13487:13554   */\n      tag_130\n      jump\t// in\n    tag_277:\n        /* \"#utility.yul\":13480:13554   */\n      swap2\n      pop\n        /* \"#utility.yul\":13563:13656   */\n      tag_278\n        /* \"#utility.yul\":13652:13655   */\n      dup3\n        /* \"#utility.yul\":13563:13656   */\n      tag_139\n      jump\t// in\n    tag_278:\n        /* \"#utility.yul\":13681:13683   */\n      0x20\n        /* \"#utility.yul\":13676:13679   */\n      dup3\n        /* \"#utility.yul\":13672:13684   */\n      add\n        /* \"#utility.yul\":13665:13684   */\n      swap1\n      pop\n        /* \"#utility.yul\":13324:13690   */\n      swap2\n      swap1\n      pop\n      jump\t// out\n        /* \"#utility.yul\":13696:14115   */\n    tag_88:\n        /* \"#utility.yul\":13862:13866   */\n      0x00\n        /* \"#utility.yul\":13900:13902   */\n      0x20\n        /* \"#utility.yul\":13889:13898   */\n      dup3\n        /* \"#utility.yul\":13885:13903   */\n      add\n        /* \"#utility.yul\":13877:13903   */\n      swap1\n      pop\n        /* \"#utility.yul\":13949:13958   */\n      dup2\n        /* \"#utility.yul\":13943:13947   */\n      dup2\n        /* \"#utility.yul\":13939:13959   */\n      sub\n        /* \"#utility.yul\":13935:13936   */\n      0x00\n        /* \"#utility.yul\":13924:13933   */\n      dup4\n        /* \"#utility.yul\":13920:13937   */\n      add\n        /* \"#utility.yul\":13913:13960   */\n      mstore\n        /* \"#utility.yul\":13977:14108   */\n      tag_280\n        /* \"#utility.yul\":14103:14107   */\n      dup2\n        /* \"#utility.yul\":13977:14108   */\n      tag_140\n      jump\t// in\n    tag_280:\n        /* \"#utility.yul\":13969:14108   */\n      swap1\n      pop\n        /* \"#utility.yul\":13696:14115   */\n      swap2\n      swap1\n      pop\n      jump\t// out\n        /* \"#utility.yul\":14121:14268   */\n    tag_141:\n        /* \"#utility.yul\":14222:14233   */\n      0x00\n        /* \"#utility.yul\":14259:14262   */\n      dup2\n        /* \"#utility.yul\":14244:14262   */\n      swap1\n      pop\n        /* \"#utility.yul\":14121:14268   */\n      swap3\n      swap2\n      pop\n      pop\n      jump\t// out\n        /* \"#utility.yul\":14274:14660   */\n    tag_142:\n        /* \"#utility.yul\":14378:14381   */\n      0x00\n        /* \"#utility.yul\":14406:14444   */\n      tag_283\n        /* \"#utility.yul\":14438:14443   */\n      dup3\n        /* \"#utility.yul\":14406:14444   */\n      tag_126\n      jump\t// in\n    tag_283:\n        /* \"#utility.yul\":14460:14548   */\n      tag_284\n        /* \"#utility.yul\":14541:14547   */\n      dup2\n        /* \"#utility.yul\":14536:14539   */\n      dup6\n        /* \"#utility.yul\":14460:14548   */\n      tag_141\n      jump\t// in\n    tag_284:\n        /* \"#utility.yul\":14453:14548   */\n      swap4\n      pop\n        /* \"#utility.yul\":14557:14622   */\n      tag_285\n        /* \"#utility.yul\":14615:14621   */\n      dup2\n        /* \"#utility.yul\":14610:14613   */\n      dup6\n        /* \"#utility.yul\":14603:14607   */\n      0x20\n        /* \"#utility.yul\":14596:14601   */\n      dup7\n        /* \"#utility.yul\":14592:14608   */\n      add\n        /* \"#utility.yul\":14557:14622   */\n      tag_128\n      jump\t// in\n    tag_285:\n        /* \"#utility.yul\":14647:14653   */\n      dup1\n        /* \"#utility.yul\":14642:14645   */\n      dup5\n        /* \"#utility.yul\":14638:14654   */\n      add\n        /* \"#utility.yul\":14631:14654   */\n      swap2\n      pop\n        /* \"#utility.yul\":14382:14660   */\n      pop\n        /* \"#utility.yul\":14274:14660   */\n      swap3\n      swap2\n      pop\n      pop\n      jump\t// out\n        /* \"#utility.yul\":14666:14937   */\n    tag_90:\n        /* \"#utility.yul\":14796:14799   */\n      0x00\n        /* \"#utility.yul\":14818:14911   */\n      tag_287\n        /* \"#utility.yul\":14907:14910   */\n      dup3\n        /* \"#utility.yul\":14898:14904   */\n      dup5\n        /* \"#utility.yul\":14818:14911   */\n      tag_142\n      jump\t// in\n    tag_287:\n        /* \"#utility.yul\":14811:14911   */\n      swap2\n      pop\n        /* \"#utility.yul\":14928:14931   */\n      dup2\n        /* \"#utility.yul\":14921:14931   */\n      swap1\n      pop\n        /* \"#utility.yul\":14666:14937   */\n      swap3\n      swap2\n      pop\n      pop\n      jump\t// out\n        /* \"#utility.yul\":14943:15163   */\n    tag_143:\n        /* \"#utility.yul\":15083:15117   */\n      0x41626f7274696e672c2063616c6c20776173206e6f7420737563636573736675\n        /* \"#utility.yul\":15079:15080   */\n      0x00\n        /* \"#utility.yul\":15071:15077   */\n      dup3\n        /* \"#utility.yul\":15067:15081   */\n      add\n        /* \"#utility.yul\":15060:15118   */\n      mstore\n        /* \"#utility.yul\":15152:15155   */\n      0x6c00000000000000000000000000000000000000000000000000000000000000\n        /* \"#utility.yul\":15147:15149   */\n      0x20\n        /* \"#utility.yul\":15139:15145   */\n      dup3\n        /* \"#utility.yul\":15135:15150   */\n      add\n        /* \"#utility.yul\":15128:15156   */\n      mstore\n        /* \"#utility.yul\":14943:15163   */\n      pop\n      jump\t// out\n        /* \"#utility.yul\":15169:15535   */\n    tag_144:\n        /* \"#utility.yul\":15311:15314   */\n      0x00\n        /* \"#utility.yul\":15332:15399   */\n      tag_290\n        /* \"#utility.yul\":15396:15398   */\n      0x21\n        /* \"#utility.yul\":15391:15394   */\n      dup4\n        /* \"#utility.yul\":15332:15399   */\n      tag_130\n      jump\t// in\n    tag_290:\n        /* \"#utility.yul\":15325:15399   */\n      swap2\n      pop\n        /* \"#utility.yul\":15408:15501   */\n      tag_291\n        /* \"#utility.yul\":15497:15500   */\n      dup3\n        /* \"#utility.yul\":15408:15501   */\n      tag_143\n      jump\t// in\n    tag_291:\n        /* \"#utility.yul\":15526:15528   */\n      0x40\n        /* \"#utility.yul\":15521:15524   */\n      dup3\n        /* \"#utility.yul\":15517:15529   */\n      add\n        /* \"#utility.yul\":15510:15529   */\n      swap1\n      pop\n        /* \"#utility.yul\":15169:15535   */\n      swap2\n      swap1\n      pop\n      jump\t// out\n        /* \"#utility.yul\":15541:15960   */\n    tag_96:\n        /* \"#utility.yul\":15707:15711   */\n      0x00\n        /* \"#utility.yul\":15745:15747   */\n      0x20\n        /* \"#utility.yul\":15734:15743   */\n      dup3\n        /* \"#utility.yul\":15730:15748   */\n      add\n        /* \"#utility.yul\":15722:15748   */\n      swap1\n      pop\n        /* \"#utility.yul\":15794:15803   */\n      dup2\n        /* \"#utility.yul\":15788:15792   */\n      dup2\n        /* \"#utility.yul\":15784:15804   */\n      sub\n        /* \"#utility.yul\":15780:15781   */\n      0x00\n        /* \"#utility.yul\":15769:15778   */\n      dup4\n        /* \"#utility.yul\":15765:15782   */\n      add\n        /* \"#utility.yul\":15758:15805   */\n      mstore\n        /* \"#utility.yul\":15822:15953   */\n      tag_293\n        /* \"#utility.yul\":15948:15952   */\n      dup2\n        /* \"#utility.yul\":15822:15953   */\n      tag_144\n      jump\t// in\n    tag_293:\n        /* \"#utility.yul\":15814:15953   */\n      swap1\n      pop\n        /* \"#utility.yul\":15541:15960   */\n      swap2\n      swap1\n      pop\n      jump\t// out\n\n    auxdata: 0xa2646970667358221220d806ee3845d88f19e8aff86fc7919996b4b4776cb7550642b38cd9a7e647eefd64736f6c634300081e0033\n}\n",
				"bytecode": {
					"linkReferences": {},
					"object": "6080604052348015600e575f5ffd5b50335f5f6101000a81548173ffffffffffffffffffffffffffffffffffffffff021916908373ffffffffffffffffffffffffffffffffffffffff1602179055506111868061005b5f395ff3fe608060405260043610610089575f3560e01c80633e5beab9116100585780633e5beab91461015c57806383012be1146101985780638da5cb5b146101c2578063b1f8100d146101ec578063be45fd621461021457610090565b80630633b14a146100945780630bc605ad146100d05780632b8a1c5a1461010c578063310ec4a71461013457610090565b3661009057005b5f5ffd5b34801561009f575f5ffd5b506100ba60048036038101906100b591906109ad565b610250565b6040516100c791906109f2565b60405180910390f35b3480156100db575f5ffd5b506100f660048036038101906100f191906109ad565b61026d565b60405161010391906109f2565b60405180910390f35b348015610117575f5ffd5b50610132600480360381019061012d9190610a35565b61028a565b005b34801561013f575f5ffd5b5061015a60048036038101906101559190610aa6565b610370565b005b348015610167575f5ffd5b50610182600480360381019061017d91906109ad565b6104fb565b60405161018f9190610af3565b60405180910390f35b3480156101a3575f5ffd5b506101ac610510565b6040516101b99190610af3565b60405180910390f35b3480156101cd575f5ffd5b506101d6610515565b6040516101e39190610b2c565b60405180910390f35b3480156101f7575f5ffd5b50610212600480360381019061020d9190610b6f565b610539565b005b34801561021f575f5ffd5b5061023a60048036038101906102359190610cd6565b61072b565b6040516102479190610da2565b60405180910390f35b6003602052805f5260405f205f915054906101000a900460ff1681565b6002602052805f5260405f205f915054906101000a900460ff1681565b5f5f9054906101000a900473ffffffffffffffffffffffffffffffffffffffff1673ffffffffffffffffffffffffffffffffffffffff163373ffffffffffffffffffffffffffffffffffffffff1614610318576040517f08c379a000000000000000000000000000000000000000000000000000000000815260040161030f90610e1c565b60405180910390fd5b8060035f8473ffffffffffffffffffffffffffffffffffffffff1673ffffffffffffffffffffffffffffffffffffffff1681526020019081526020015f205f6101000a81548160ff0219169083151502179055505050565b5f5f9054906101000a900473ffffffffffffffffffffffffffffffffffffffff1673ffffffffffffffffffffffffffffffffffffffff163373ffffffffffffffffffffffffffffffffffffffff16146103fe576040517f08c379a00000000000000000000000000000000000000000000000000000000081526004016103f590610e1c565b60405180910390fd5b8060015f8473ffffffffffffffffffffffffffffffffffffffff1673ffffffffffffffffffffffffffffffffffffffff1681526020019081526020015f20819055505f8111156104a257600160025f8473ffffffffffffffffffffffffffffffffffffffff1673ffffffffffffffffffffffffffffffffffffffff1681526020019081526020015f205f6101000a81548160ff0219169083151502179055506104f7565b5f60025f8473ffffffffffffffffffffffffffffffffffffffff1673ffffffffffffffffffffffffffffffffffffffff1681526020019081526020015f205f6101000a81548160ff0219169083151502179055505b5050565b6001602052805f5260405f205f915090505481565b600381565b5f5f9054906101000a900473ffffffffffffffffffffffffffffffffffffffff1681565b60035f3373ffffffffffffffffffffffffffffffffffffffff1673ffffffffffffffffffffffffffffffffffffffff1681526020019081526020015f205f9054906101000a900460ff166105c2576040517f08c379a00000000000000000000000000000000000000000000000000000000081526004016105b990610eaa565b60405180910390fd5b5f151560055f8373ffffffffffffffffffffffffffffffffffffffff1673ffffffffffffffffffffffffffffffffffffffff1681526020019081526020015f205f3373ffffffffffffffffffffffffffffffffffffffff1673ffffffffffffffffffffffffffffffffffffffff1681526020019081526020015f205f9054906101000a900460ff1615151461068c576040517f08c379a000000000000000000000000000000000000000000000000000000000815260040161068390610f38565b60405180910390fd5b60045f9054906101000a900473ffffffffffffffffffffffffffffffffffffffff1673ffffffffffffffffffffffffffffffffffffffff168173ffffffffffffffffffffffffffffffffffffffff1614610728578060045f6101000a81548173ffffffffffffffffffffffffffffffffffffffff021916908373ffffffffffffffffffffffffffffffffffffffff1602179055505f6006819055505b50565b60605f5f9054906101000a900473ffffffffffffffffffffffffffffffffffffffff1673ffffffffffffffffffffffffffffffffffffffff163373ffffffffffffffffffffffffffffffffffffffff161461088a5760025f3373ffffffffffffffffffffffffffffffffffffffff1673ffffffffffffffffffffffffffffffffffffffff1681526020019081526020015f205f9054906101000a900460ff16610809576040517f08c379a000000000000000000000000000000000000000000000000000000000815260040161080090610fec565b60405180910390fd5b8260015f3373ffffffffffffffffffffffffffffffffffffffff1673ffffffffffffffffffffffffffffffffffffffff1681526020019081526020015f20541015610889576040517f08c379a000000000000000000000000000000000000000000000000000000000815260040161088090611054565b60405180910390fd5b5b5f5f8573ffffffffffffffffffffffffffffffffffffffff1685856040516108b291906110ac565b5f6040518083038185875af1925050503d805f81146108ec576040519150601f19603f3d011682016040523d82523d5f602084013e6108f1565b606091505b509150915081610936576040517f08c379a000000000000000000000000000000000000000000000000000000000815260040161092d90611132565b60405180910390fd5b80925050509392505050565b5f604051905090565b5f5ffd5b5f5ffd5b5f73ffffffffffffffffffffffffffffffffffffffff82169050919050565b5f61097c82610953565b9050919050565b61098c81610972565b8114610996575f5ffd5b50565b5f813590506109a781610983565b92915050565b5f602082840312156109c2576109c161094b565b5b5f6109cf84828501610999565b91505092915050565b5f8115159050919050565b6109ec816109d8565b82525050565b5f602082019050610a055f8301846109e3565b92915050565b610a14816109d8565b8114610a1e575f5ffd5b50565b5f81359050610a2f81610a0b565b92915050565b5f5f60408385031215610a4b57610a4a61094b565b5b5f610a5885828601610999565b9250506020610a6985828601610a21565b9150509250929050565b5f819050919050565b610a8581610a73565b8114610a8f575f5ffd5b50565b5f81359050610aa081610a7c565b92915050565b5f5f60408385031215610abc57610abb61094b565b5b5f610ac985828601610999565b9250506020610ada85828601610a92565b9150509250929050565b610aed81610a73565b82525050565b5f602082019050610b065f830184610ae4565b92915050565b5f610b1682610953565b9050919050565b610b2681610b0c565b82525050565b5f602082019050610b3f5f830184610b1d565b92915050565b610b4e81610b0c565b8114610b58575f5ffd5b50565b5f81359050610b6981610b45565b92915050565b5f60208284031215610b8457610b8361094b565b5b5f610b9184828501610b5b565b91505092915050565b5f5ffd5b5f5ffd5b5f601f19601f8301169050919050565b7f4e487b71000000000000000000000000000000000000000000000000000000005f52604160045260245ffd5b610be882610ba2565b810181811067ffffffffffffffff82111715610c0757610c06610bb2565b5b80604052505050565b5f610c19610942565b9050610c258282610bdf565b919050565b5f67ffffffffffffffff821115610c4457610c43610bb2565b5b610c4d82610ba2565b9050602081019050919050565b828183375f83830152505050565b5f610c7a610c7584610c2a565b610c10565b905082815260208101848484011115610c9657610c95610b9e565b5b610ca1848285610c5a565b509392505050565b5f82601f830112610cbd57610cbc610b9a565b5b8135610ccd848260208601610c68565b91505092915050565b5f5f5f60608486031215610ced57610cec61094b565b5b5f610cfa86828701610b5b565b9350506020610d0b86828701610a92565b925050604084013567ffffffffffffffff811115610d2c57610d2b61094f565b5b610d3886828701610ca9565b9150509250925092565b5f81519050919050565b5f82825260208201905092915050565b8281835e5f83830152505050565b5f610d7482610d42565b610d7e8185610d4c565b9350610d8e818560208601610d5c565b610d9781610ba2565b840191505092915050565b5f6020820190508181035f830152610dba8184610d6a565b905092915050565b5f82825260208201905092915050565b7f596f7520617265206e6f7420746865206f776e657200000000000000000000005f82015250565b5f610e06601583610dc2565b9150610e1182610dd2565b602082019050919050565b5f6020820190508181035f830152610e3381610dfa565b9050919050565b7f596f7520617265206e6f7420677561726469616e206f6620746869732077616c5f8201527f6c65740000000000000000000000000000000000000000000000000000000000602082015250565b5f610e94602383610dc2565b9150610e9f82610e3a565b604082019050919050565b5f6020820190508181035f830152610ec181610e88565b9050919050565b7f596f7520616c726561647920766f74656420666f722074686973206e6577206f5f8201527f776e657200000000000000000000000000000000000000000000000000000000602082015250565b5f610f22602483610dc2565b9150610f2d82610ec8565b604082019050919050565b5f6020820190508181035f830152610f4f81610f16565b9050919050565b7f596f7520617265206e6f7420616c6c6f77656420746f2073656e6420616e79745f8201527f68696e2066726f6d2074686973207361727420636f6e74726163742061626f7260208201527f74696e6700000000000000000000000000000000000000000000000000000000604082015250565b5f610fd6604483610dc2565b9150610fe182610f56565b606082019050919050565b5f6020820190508181035f83015261100381610fca565b9050919050565b7f496e73756666696369656e7420616c6c6f77616e6365000000000000000000005f82015250565b5f61103e601683610dc2565b91506110498261100a565b602082019050919050565b5f6020820190508181035f83015261106b81611032565b9050919050565b5f81905092915050565b5f61108682610d42565b6110908185611072565b93506110a0818560208601610d5c565b80840191505092915050565b5f6110b7828461107c565b915081905092915050565b7f41626f7274696e672c2063616c6c20776173206e6f74207375636365737366755f8201527f6c00000000000000000000000000000000000000000000000000000000000000602082015250565b5f61111c602183610dc2565b9150611127826110c2565b604082019050919050565b5f6020820190508181035f83015261114981611110565b905091905056fea2646970667358221220d806ee3845d88f19e8aff86fc7919996b4b4776cb7550642b38cd9a7e647eefd64736f6c634300081e0033",
					"opcodes": "PUSH1 0x80 PUSH1 0x40 MSTORE CALLVALUE DUP1 ISZERO PUSH1 0xE JUMPI PUSH0 PUSH0 REVERT JUMPDEST POP CALLER PUSH0 PUSH0 PUSH2 0x100 EXP DUP2 SLOAD DUP2 PUSH20 0xFFFFFFFFFFFFFFFFFFFFFFFFFFFFFFFFFFFFFFFF MUL NOT AND SWAP1 DUP4 PUSH20 0xFFFFFFFFFFFFFFFFFFFFFFFFFFFFFFFFFFFFFFFF AND MUL OR SWAP1 SSTORE POP PUSH2 0x1186 DUP1 PUSH2 0x5B PUSH0 CODECOPY PUSH0 RETURN INVALID PUSH1 0x80 PUSH1 0x40 MSTORE PUSH1 0x4 CALLDATASIZE LT PUSH2 0x89 JUMPI PUSH0 CALLDATALOAD PUSH1 0xE0 SHR DUP1 PUSH4 0x3E5BEAB9 GT PUSH2 0x58 JUMPI DUP1 PUSH4 0x3E5BEAB9 EQ PUSH2 0x15C JUMPI DUP1 PUSH4 0x83012BE1 EQ PUSH2 0x198 JUMPI DUP1 PUSH4 0x8DA5CB5B EQ PUSH2 0x1C2 JUMPI DUP1 PUSH4 0xB1F8100D EQ PUSH2 0x1EC JUMPI DUP1 PUSH4 0xBE45FD62 EQ PUSH2 0x214 JUMPI PUSH2 0x90 JUMP JUMPDEST DUP1 PUSH4 0x633B14A EQ PUSH2 0x94 JUMPI DUP1 PUSH4 0xBC605AD EQ PUSH2 0xD0 JUMPI DUP1 PUSH4 0x2B8A1C5A EQ PUSH2 0x10C JUMPI DUP1 PUSH4 0x310EC4A7 EQ PUSH2 0x134 JUMPI PUSH2 0x90 JUMP JUMPDEST CALLDATASIZE PUSH2 0x90 JUMPI STOP JUMPDEST PUSH0 PUSH0 REVERT JUMPDEST CALLVALUE DUP1 ISZERO PUSH2 0x9F JUMPI PUSH0 PUSH0 REVERT JUMPDEST POP PUSH2 0xBA PUSH1 0x4 DUP1 CALLDATASIZE SUB DUP2 ADD SWAP1 PUSH2 0xB5 SWAP2 SWAP1 PUSH2 0x9AD JUMP JUMPDEST PUSH2 0x250 JUMP JUMPDEST PUSH1 0x40 MLOAD PUSH2 0xC7 SWAP2 SWAP1 PUSH2 0x9F2 JUMP JUMPDEST PUSH1 0x40 MLOAD DUP1 SWAP2 SUB SWAP1 RETURN JUMPDEST CALLVALUE DUP1 ISZERO PUSH2 0xDB JUMPI PUSH0 PUSH0 REVERT JUMPDEST POP PUSH2 0xF6 PUSH1 0x4 DUP1 CALLDATASIZE SUB DUP2 ADD SWAP1 PUSH2 0xF1 SWAP2 SWAP1 PUSH2 0x9AD JUMP JUMPDEST PUSH2 0x26D JUMP JUMPDEST PUSH1 0x40 MLOAD PUSH2 0x103 SWAP2 SWAP1 PUSH2 0x9F2 JUMP JUMPDEST PUSH1 0x40 MLOAD DUP1 SWAP2 SUB SWAP1 RETURN JUMPDEST CALLVALUE DUP1 ISZERO PUSH2 0x117 JUMPI PUSH0 PUSH0 REVERT JUMPDEST POP PUSH2 0x132 PUSH1 0x4 DUP1 CALLDATASIZE SUB DUP2 ADD SWAP1 PUSH2 0x12D SWAP2 SWAP1 PUSH2 0xA35 JUMP JUMPDEST PUSH2 0x28A JUMP JUMPDEST STOP JUMPDEST CALLVALUE DUP1 ISZERO PUSH2 0x13F JUMPI PUSH0 PUSH0 REVERT JUMPDEST POP PUSH2 0x15A PUSH1 0x4 DUP1 CALLDATASIZE SUB DUP2 ADD SWAP1 PUSH2 0x155 SWAP2 SWAP1 PUSH2 0xAA6 JUMP JUMPDEST PUSH2 0x370 JUMP JUMPDEST STOP JUMPDEST CALLVALUE DUP1 ISZERO PUSH2 0x167 JUMPI PUSH0 PUSH0 REVERT JUMPDEST POP PUSH2 0x182 PUSH1 0x4 DUP1 CALLDATASIZE SUB DUP2 ADD SWAP1 PUSH2 0x17D SWAP2 SWAP1 PUSH2 0x9AD JUMP JUMPDEST PUSH2 0x4FB JUMP JUMPDEST PUSH1 0x40 MLOAD PUSH2 0x18F SWAP2 SWAP1 PUSH2 0xAF3 JUMP JUMPDEST PUSH1 0x40 MLOAD DUP1 SWAP2 SUB SWAP1 RETURN JUMPDEST CALLVALUE DUP1 ISZERO PUSH2 0x1A3 JUMPI PUSH0 PUSH0 REVERT JUMPDEST POP PUSH2 0x1AC PUSH2 0x510 JUMP JUMPDEST PUSH1 0x40 MLOAD PUSH2 0x1B9 SWAP2 SWAP1 PUSH2 0xAF3 JUMP JUMPDEST PUSH1 0x40 MLOAD DUP1 SWAP2 SUB SWAP1 RETURN JUMPDEST CALLVALUE DUP1 ISZERO PUSH2 0x1CD JUMPI PUSH0 PUSH0 REVERT JUMPDEST POP PUSH2 0x1D6 PUSH2 0x515 JUMP JUMPDEST PUSH1 0x40 MLOAD PUSH2 0x1E3 SWAP2 SWAP1 PUSH2 0xB2C JUMP JUMPDEST PUSH1 0x40 MLOAD DUP1 SWAP2 SUB SWAP1 RETURN JUMPDEST CALLVALUE DUP1 ISZERO PUSH2 0x1F7 JUMPI PUSH0 PUSH0 REVERT JUMPDEST POP PUSH2 0x212 PUSH1 0x4 DUP1 CALLDATASIZE SUB DUP2 ADD SWAP1 PUSH2 0x20D SWAP2 SWAP1 PUSH2 0xB6F JUMP JUMPDEST PUSH2 0x539 JUMP JUMPDEST STOP JUMPDEST CALLVALUE DUP1 ISZERO PUSH2 0x21F JUMPI PUSH0 PUSH0 REVERT JUMPDEST POP PUSH2 0x23A PUSH1 0x4 DUP1 CALLDATASIZE SUB DUP2 ADD SWAP1 PUSH2 0x235 SWAP2 SWAP1 PUSH2 0xCD6 JUMP JUMPDEST PUSH2 0x72B JUMP JUMPDEST PUSH1 0x40 MLOAD PUSH2 0x247 SWAP2 SWAP1 PUSH2 0xDA2 JUMP JUMPDEST PUSH1 0x40 MLOAD DUP1 SWAP2 SUB SWAP1 RETURN JUMPDEST PUSH1 0x3 PUSH1 0x20 MSTORE DUP1 PUSH0 MSTORE PUSH1 0x40 PUSH0 KECCAK256 PUSH0 SWAP2 POP SLOAD SWAP1 PUSH2 0x100 EXP SWAP1 DIV PUSH1 0xFF AND DUP2 JUMP JUMPDEST PUSH1 0x2 PUSH1 0x20 MSTORE DUP1 PUSH0 MSTORE PUSH1 0x40 PUSH0 KECCAK256 PUSH0 SWAP2 POP SLOAD SWAP1 PUSH2 0x100 EXP SWAP1 DIV PUSH1 0xFF AND DUP2 JUMP JUMPDEST PUSH0 PUSH0 SWAP1 SLOAD SWAP1 PUSH2 0x100 EXP SWAP1 DIV PUSH20 0xFFFFFFFFFFFFFFFFFFFFFFFFFFFFFFFFFFFFFFFF AND PUSH20 0xFFFFFFFFFFFFFFFFFFFFFFFFFFFFFFFFFFFFFFFF AND CALLER PUSH20 0xFFFFFFFFFFFFFFFFFFFFFFFFFFFFFFFFFFFFFFFF AND EQ PUSH2 0x318 JUMPI PUSH1 0x40 MLOAD PUSH32 0x8C379A000000000000000000000000000000000000000000000000000000000 DUP2 MSTORE PUSH1 0x4 ADD PUSH2 0x30F SWAP1 PUSH2 0xE1C JUMP JUMPDEST PUSH1 0x40 MLOAD DUP1 SWAP2 SUB SWAP1 REVERT JUMPDEST DUP1 PUSH1 0x3 PUSH0 DUP5 PUSH20 0xFFFFFFFFFFFFFFFFFFFFFFFFFFFFFFFFFFFFFFFF AND PUSH20 0xFFFFFFFFFFFFFFFFFFFFFFFFFFFFFFFFFFFFFFFF AND DUP2 MSTORE PUSH1 0x20 ADD SWAP1 DUP2 MSTORE PUSH1 0x20 ADD PUSH0 KECCAK256 PUSH0 PUSH2 0x100 EXP DUP2 SLOAD DUP2 PUSH1 0xFF MUL NOT AND SWAP1 DUP4 ISZERO ISZERO MUL OR SWAP1 SSTORE POP POP POP JUMP JUMPDEST PUSH0 PUSH0 SWAP1 SLOAD SWAP1 PUSH2 0x100 EXP SWAP1 DIV PUSH20 0xFFFFFFFFFFFFFFFFFFFFFFFFFFFFFFFFFFFFFFFF AND PUSH20 0xFFFFFFFFFFFFFFFFFFFFFFFFFFFFFFFFFFFFFFFF AND CALLER PUSH20 0xFFFFFFFFFFFFFFFFFFFFFFFFFFFFFFFFFFFFFFFF AND EQ PUSH2 0x3FE JUMPI PUSH1 0x40 MLOAD PUSH32 0x8C379A000000000000000000000000000000000000000000000000000000000 DUP2 MSTORE PUSH1 0x4 ADD PUSH2 0x3F5 SWAP1 PUSH2 0xE1C JUMP JUMPDEST PUSH1 0x40 MLOAD DUP1 SWAP2 SUB SWAP1 REVERT JUMPDEST DUP1 PUSH1 0x1 PUSH0 DUP5 PUSH20 0xFFFFFFFFFFFFFFFFFFFFFFFFFFFFFFFFFFFFFFFF AND PUSH20 0xFFFFFFFFFFFFFFFFFFFFFFFFFFFFFFFFFFFFFFFF AND DUP2 MSTORE PUSH1 0x20 ADD SWAP1 DUP2 MSTORE PUSH1 0x20 ADD PUSH0 KECCAK256 DUP2 SWAP1 SSTORE POP PUSH0 DUP2 GT ISZERO PUSH2 0x4A2 JUMPI PUSH1 0x1 PUSH1 0x2 PUSH0 DUP5 PUSH20 0xFFFFFFFFFFFFFFFFFFFFFFFFFFFFFFFFFFFFFFFF AND PUSH20 0xFFFFFFFFFFFFFFFFFFFFFFFFFFFFFFFFFFFFFFFF AND DUP2 MSTORE PUSH1 0x20 ADD SWAP1 DUP2 MSTORE PUSH1 0x20 ADD PUSH0 KECCAK256 PUSH0 PUSH2 0x100 EXP DUP2 SLOAD DUP2 PUSH1 0xFF MUL NOT AND SWAP1 DUP4 ISZERO ISZERO MUL OR SWAP1 SSTORE POP PUSH2 0x4F7 JUMP JUMPDEST PUSH0 PUSH1 0x2 PUSH0 DUP5 PUSH20 0xFFFFFFFFFFFFFFFFFFFFFFFFFFFFFFFFFFFFFFFF AND PUSH20 0xFFFFFFFFFFFFFFFFFFFFFFFFFFFFFFFFFFFFFFFF AND DUP2 MSTORE PUSH1 0x20 ADD SWAP1 DUP2 MSTORE PUSH1 0x20 ADD PUSH0 KECCAK256 PUSH0 PUSH2 0x100 EXP DUP2 SLOAD DUP2 PUSH1 0xFF MUL NOT AND SWAP1 DUP4 ISZERO ISZERO MUL OR SWAP1 SSTORE POP JUMPDEST POP POP JUMP JUMPDEST PUSH1 0x1 PUSH1 0x20 MSTORE DUP1 PUSH0 MSTORE PUSH1 0x40 PUSH0 KECCAK256 PUSH0 SWAP2 POP SWAP1 POP SLOAD DUP2 JUMP JUMPDEST PUSH1 0x3 DUP2 JUMP JUMPDEST PUSH0 PUSH0 SWAP1 SLOAD SWAP1 PUSH2 0x100 EXP SWAP1 DIV PUSH20 0xFFFFFFFFFFFFFFFFFFFFFFFFFFFFFFFFFFFFFFFF AND DUP2 JUMP JUMPDEST PUSH1 0x3 PUSH0 CALLER PUSH20 0xFFFFFFFFFFFFFFFFFFFFFFFFFFFFFFFFFFFFFFFF AND PUSH20 0xFFFFFFFFFFFFFFFFFFFFFFFFFFFFFFFFFFFFFFFF AND DUP2 MSTORE PUSH1 0x20 ADD SWAP1 DUP2 MSTORE PUSH1 0x20 ADD PUSH0 KECCAK256 PUSH0 SWAP1 SLOAD SWAP1 PUSH2 0x100 EXP SWAP1 DIV PUSH1 0xFF AND PUSH2 0x5C2 JUMPI PUSH1 0x40 MLOAD PUSH32 0x8C379A000000000000000000000000000000000000000000000000000000000 DUP2 MSTORE PUSH1 0x4 ADD PUSH2 0x5B9 SWAP1 PUSH2 0xEAA JUMP JUMPDEST PUSH1 0x40 MLOAD DUP1 SWAP2 SUB SWAP1 REVERT JUMPDEST PUSH0 ISZERO ISZERO PUSH1 0x5 PUSH0 DUP4 PUSH20 0xFFFFFFFFFFFFFFFFFFFFFFFFFFFFFFFFFFFFFFFF AND PUSH20 0xFFFFFFFFFFFFFFFFFFFFFFFFFFFFFFFFFFFFFFFF AND DUP2 MSTORE PUSH1 0x20 ADD SWAP1 DUP2 MSTORE PUSH1 0x20 ADD PUSH0 KECCAK256 PUSH0 CALLER PUSH20 0xFFFFFFFFFFFFFFFFFFFFFFFFFFFFFFFFFFFFFFFF AND PUSH20 0xFFFFFFFFFFFFFFFFFFFFFFFFFFFFFFFFFFFFFFFF AND DUP2 MSTORE PUSH1 0x20 ADD SWAP1 DUP2 MSTORE PUSH1 0x20 ADD PUSH0 KECCAK256 PUSH0 SWAP1 SLOAD SWAP1 PUSH2 0x100 EXP SWAP1 DIV PUSH1 0xFF AND ISZERO ISZERO EQ PUSH2 0x68C JUMPI PUSH1 0x40 MLOAD PUSH32 0x8C379A000000000000000000000000000000000000000000000000000000000 DUP2 MSTORE PUSH1 0x4 ADD PUSH2 0x683 SWAP1 PUSH2 0xF38 JUMP JUMPDEST PUSH1 0x40 MLOAD DUP1 SWAP2 SUB SWAP1 REVERT JUMPDEST PUSH1 0x4 PUSH0 SWAP1 SLOAD SWAP1 PUSH2 0x100 EXP SWAP1 DIV PUSH20 0xFFFFFFFFFFFFFFFFFFFFFFFFFFFFFFFFFFFFFFFF AND PUSH20 0xFFFFFFFFFFFFFFFFFFFFFFFFFFFFFFFFFFFFFFFF AND DUP2 PUSH20 0xFFFFFFFFFFFFFFFFFFFFFFFFFFFFFFFFFFFFFFFF AND EQ PUSH2 0x728 JUMPI DUP1 PUSH1 0x4 PUSH0 PUSH2 0x100 EXP DUP2 SLOAD DUP2 PUSH20 0xFFFFFFFFFFFFFFFFFFFFFFFFFFFFFFFFFFFFFFFF MUL NOT AND SWAP1 DUP4 PUSH20 0xFFFFFFFFFFFFFFFFFFFFFFFFFFFFFFFFFFFFFFFF AND MUL OR SWAP1 SSTORE POP PUSH0 PUSH1 0x6 DUP2 SWAP1 SSTORE POP JUMPDEST POP JUMP JUMPDEST PUSH1 0x60 PUSH0 PUSH0 SWAP1 SLOAD SWAP1 PUSH2 0x100 EXP SWAP1 DIV PUSH20 0xFFFFFFFFFFFFFFFFFFFFFFFFFFFFFFFFFFFFFFFF AND PUSH20 0xFFFFFFFFFFFFFFFFFFFFFFFFFFFFFFFFFFFFFFFF AND CALLER PUSH20 0xFFFFFFFFFFFFFFFFFFFFFFFFFFFFFFFFFFFFFFFF AND EQ PUSH2 0x88A JUMPI PUSH1 0x2 PUSH0 CALLER PUSH20 0xFFFFFFFFFFFFFFFFFFFFFFFFFFFFFFFFFFFFFFFF AND PUSH20 0xFFFFFFFFFFFFFFFFFFFFFFFFFFFFFFFFFFFFFFFF AND DUP2 MSTORE PUSH1 0x20 ADD SWAP1 DUP2 MSTORE PUSH1 0x20 ADD PUSH0 KECCAK256 PUSH0 SWAP1 SLOAD SWAP1 PUSH2 0x100 EXP SWAP1 DIV PUSH1 0xFF AND PUSH2 0x809 JUMPI PUSH1 0x40 MLOAD PUSH32 0x8C379A000000000000000000000000000000000000000000000000000000000 DUP2 MSTORE PUSH1 0x4 ADD PUSH2 0x800 SWAP1 PUSH2 0xFEC JUMP JUMPDEST PUSH1 0x40 MLOAD DUP1 SWAP2 SUB SWAP1 REVERT JUMPDEST DUP3 PUSH1 0x1 PUSH0 CALLER PUSH20 0xFFFFFFFFFFFFFFFFFFFFFFFFFFFFFFFFFFFFFFFF AND PUSH20 0xFFFFFFFFFFFFFFFFFFFFFFFFFFFFFFFFFFFFFFFF AND DUP2 MSTORE PUSH1 0x20 ADD SWAP1 DUP2 MSTORE PUSH1 0x20 ADD PUSH0 KECCAK256 SLOAD LT ISZERO PUSH2 0x889 JUMPI PUSH1 0x40 MLOAD PUSH32 0x8C379A000000000000000000000000000000000000000000000000000000000 DUP2 MSTORE PUSH1 0x4 ADD PUSH2 0x880 SWAP1 PUSH2 0x1054 JUMP JUMPDEST PUSH1 0x40 MLOAD DUP1 SWAP2 SUB SWAP1 REVERT JUMPDEST JUMPDEST PUSH0 PUSH0 DUP6 PUSH20 0xFFFFFFFFFFFFFFFFFFFFFFFFFFFFFFFFFFFFFFFF AND DUP6 DUP6 PUSH1 0x40 MLOAD PUSH2 0x8B2 SWAP2 SWAP1 PUSH2 0x10AC JUMP JUMPDEST PUSH0 PUSH1 0x40 MLOAD DUP1 DUP4 SUB DUP2 DUP6 DUP8 GAS CALL SWAP3 POP POP POP RETURNDATASIZE DUP1 PUSH0 DUP2 EQ PUSH2 0x8EC JUMPI PUSH1 0x40 MLOAD SWAP2 POP PUSH1 0x1F NOT PUSH1 0x3F RETURNDATASIZE ADD AND DUP3 ADD PUSH1 0x40 MSTORE RETURNDATASIZE DUP3 MSTORE RETURNDATASIZE PUSH0 PUSH1 0x20 DUP5 ADD RETURNDATACOPY PUSH2 0x8F1 JUMP JUMPDEST PUSH1 0x60 SWAP2 POP JUMPDEST POP SWAP2 POP SWAP2 POP DUP2 PUSH2 0x936 JUMPI PUSH1 0x40 MLOAD PUSH32 0x8C379A000000000000000000000000000000000000000000000000000000000 DUP2 MSTORE PUSH1 0x4 ADD PUSH2 0x92D SWAP1 PUSH2 0x1132 JUMP JUMPDEST PUSH1 0x40 MLOAD DUP1 SWAP2 SUB SWAP1 REVERT JUMPDEST DUP1 SWAP3 POP POP POP SWAP4 SWAP3 POP POP POP JUMP JUMPDEST PUSH0 PUSH1 0x40 MLOAD SWAP1 POP SWAP1 JUMP JUMPDEST PUSH0 PUSH0 REVERT JUMPDEST PUSH0 PUSH0 REVERT JUMPDEST PUSH0 PUSH20 0xFFFFFFFFFFFFFFFFFFFFFFFFFFFFFFFFFFFFFFFF DUP3 AND SWAP1 POP SWAP2 SWAP1 POP JUMP JUMPDEST PUSH0 PUSH2 0x97C DUP3 PUSH2 0x953 JUMP JUMPDEST SWAP1 POP SWAP2 SWAP1 POP JUMP JUMPDEST PUSH2 0x98C DUP2 PUSH2 0x972 JUMP JUMPDEST DUP2 EQ PUSH2 0x996 JUMPI PUSH0 PUSH0 REVERT JUMPDEST POP JUMP JUMPDEST PUSH0 DUP2 CALLDATALOAD SWAP1 POP PUSH2 0x9A7 DUP2 PUSH2 0x983 JUMP JUMPDEST SWAP3 SWAP2 POP POP JUMP JUMPDEST PUSH0 PUSH1 0x20 DUP3 DUP5 SUB SLT ISZERO PUSH2 0x9C2 JUMPI PUSH2 0x9C1 PUSH2 0x94B JUMP JUMPDEST JUMPDEST PUSH0 PUSH2 0x9CF DUP5 DUP3 DUP6 ADD PUSH2 0x999 JUMP JUMPDEST SWAP2 POP POP SWAP3 SWAP2 POP POP JUMP JUMPDEST PUSH0 DUP2 ISZERO ISZERO SWAP1 POP SWAP2 SWAP1 POP JUMP JUMPDEST PUSH2 0x9EC DUP2 PUSH2 0x9D8 JUMP JUMPDEST DUP3 MSTORE POP POP JUMP JUMPDEST PUSH0 PUSH1 0x20 DUP3 ADD SWAP1 POP PUSH2 0xA05 PUSH0 DUP4 ADD DUP5 PUSH2 0x9E3 JUMP JUMPDEST SWAP3 SWAP2 POP POP JUMP JUMPDEST PUSH2 0xA14 DUP2 PUSH2 0x9D8 JUMP JUMPDEST DUP2 EQ PUSH2 0xA1E JUMPI PUSH0 PUSH0 REVERT JUMPDEST POP JUMP JUMPDEST PUSH0 DUP2 CALLDATALOAD SWAP1 POP PUSH2 0xA2F DUP2 PUSH2 0xA0B JUMP JUMPDEST SWAP3 SWAP2 POP POP JUMP JUMPDEST PUSH0 PUSH0 PUSH1 0x40 DUP4 DUP6 SUB SLT ISZERO PUSH2 0xA4B JUMPI PUSH2 0xA4A PUSH2 0x94B JUMP JUMPDEST JUMPDEST PUSH0 PUSH2 0xA58 DUP6 DUP3 DUP7 ADD PUSH2 0x999 JUMP JUMPDEST SWAP3 POP POP PUSH1 0x20 PUSH2 0xA69 DUP6 DUP3 DUP7 ADD PUSH2 0xA21 JUMP JUMPDEST SWAP2 POP POP SWAP3 POP SWAP3 SWAP1 POP JUMP JUMPDEST PUSH0 DUP2 SWAP1 POP SWAP2 SWAP1 POP JUMP JUMPDEST PUSH2 0xA85 DUP2 PUSH2 0xA73 JUMP JUMPDEST DUP2 EQ PUSH2 0xA8F JUMPI PUSH0 PUSH0 REVERT JUMPDEST POP JUMP JUMPDEST PUSH0 DUP2 CALLDATALOAD SWAP1 POP PUSH2 0xAA0 DUP2 PUSH2 0xA7C JUMP JUMPDEST SWAP3 SWAP2 POP POP JUMP JUMPDEST PUSH0 PUSH0 PUSH1 0x40 DUP4 DUP6 SUB SLT ISZERO PUSH2 0xABC JUMPI PUSH2 0xABB PUSH2 0x94B JUMP JUMPDEST JUMPDEST PUSH0 PUSH2 0xAC9 DUP6 DUP3 DUP7 ADD PUSH2 0x999 JUMP JUMPDEST SWAP3 POP POP PUSH1 0x20 PUSH2 0xADA DUP6 DUP3 DUP7 ADD PUSH2 0xA92 JUMP JUMPDEST SWAP2 POP POP SWAP3 POP SWAP3 SWAP1 POP JUMP JUMPDEST PUSH2 0xAED DUP2 PUSH2 0xA73 JUMP JUMPDEST DUP3 MSTORE POP POP JUMP JUMPDEST PUSH0 PUSH1 0x20 DUP3 ADD SWAP1 POP PUSH2 0xB06 PUSH0 DUP4 ADD DUP5 PUSH2 0xAE4 JUMP JUMPDEST SWAP3 SWAP2 POP POP JUMP JUMPDEST PUSH0 PUSH2 0xB16 DUP3 PUSH2 0x953 JUMP JUMPDEST SWAP1 POP SWAP2 SWAP1 POP JUMP JUMPDEST PUSH2 0xB26 DUP2 PUSH2 0xB0C JUMP JUMPDEST DUP3 MSTORE POP POP JUMP JUMPDEST PUSH0 PUSH1 0x20 DUP3 ADD SWAP1 POP PUSH2 0xB3F PUSH0 DUP4 ADD DUP5 PUSH2 0xB1D JUMP JUMPDEST SWAP3 SWAP2 POP POP JUMP JUMPDEST PUSH2 0xB4E DUP2 PUSH2 0xB0C JUMP JUMPDEST DUP2 EQ PUSH2 0xB58 JUMPI PUSH0 PUSH0 REVERT JUMPDEST POP JUMP JUMPDEST PUSH0 DUP2 CALLDATALOAD SWAP1 POP PUSH2 0xB69 DUP2 PUSH2 0xB45 JUMP JUMPDEST SWAP3 SWAP2 POP POP JUMP JUMPDEST PUSH0 PUSH1 0x20 DUP3 DUP5 SUB SLT ISZERO PUSH2 0xB84 JUMPI PUSH2 0xB83 PUSH2 0x94B JUMP JUMPDEST JUMPDEST PUSH0 PUSH2 0xB91 DUP5 DUP3 DUP6 ADD PUSH2 0xB5B JUMP JUMPDEST SWAP2 POP POP SWAP3 SWAP2 POP POP JUMP JUMPDEST PUSH0 PUSH0 REVERT JUMPDEST PUSH0 PUSH0 REVERT JUMPDEST PUSH0 PUSH1 0x1F NOT PUSH1 0x1F DUP4 ADD AND SWAP1 POP SWAP2 SWAP1 POP JUMP JUMPDEST PUSH32 0x4E487B7100000000000000000000000000000000000000000000000000000000 PUSH0 MSTORE PUSH1 0x41 PUSH1 0x4 MSTORE PUSH1 0x24 PUSH0 REVERT JUMPDEST PUSH2 0xBE8 DUP3 PUSH2 0xBA2 JUMP JUMPDEST DUP2 ADD DUP2 DUP2 LT PUSH8 0xFFFFFFFFFFFFFFFF DUP3 GT OR ISZERO PUSH2 0xC07 JUMPI PUSH2 0xC06 PUSH2 0xBB2 JUMP JUMPDEST JUMPDEST DUP1 PUSH1 0x40 MSTORE POP POP POP JUMP JUMPDEST PUSH0 PUSH2 0xC19 PUSH2 0x942 JUMP JUMPDEST SWAP1 POP PUSH2 0xC25 DUP3 DUP3 PUSH2 0xBDF JUMP JUMPDEST SWAP2 SWAP1 POP JUMP JUMPDEST PUSH0 PUSH8 0xFFFFFFFFFFFFFFFF DUP3 GT ISZERO PUSH2 0xC44 JUMPI PUSH2 0xC43 PUSH2 0xBB2 JUMP JUMPDEST JUMPDEST PUSH2 0xC4D DUP3 PUSH2 0xBA2 JUMP JUMPDEST SWAP1 POP PUSH1 0x20 DUP2 ADD SWAP1 POP SWAP2 SWAP1 POP JUMP JUMPDEST DUP3 DUP2 DUP4 CALLDATACOPY PUSH0 DUP4 DUP4 ADD MSTORE POP POP POP JUMP JUMPDEST PUSH0 PUSH2 0xC7A PUSH2 0xC75 DUP5 PUSH2 0xC2A JUMP JUMPDEST PUSH2 0xC10 JUMP JUMPDEST SWAP1 POP DUP3 DUP2 MSTORE PUSH1 0x20 DUP2 ADD DUP5 DUP5 DUP5 ADD GT ISZERO PUSH2 0xC96 JUMPI PUSH2 0xC95 PUSH2 0xB9E JUMP JUMPDEST JUMPDEST PUSH2 0xCA1 DUP5 DUP3 DUP6 PUSH2 0xC5A JUMP JUMPDEST POP SWAP4 SWAP3 POP POP POP JUMP JUMPDEST PUSH0 DUP3 PUSH1 0x1F DUP4 ADD SLT PUSH2 0xCBD JUMPI PUSH2 0xCBC PUSH2 0xB9A JUMP JUMPDEST JUMPDEST DUP2 CALLDATALOAD PUSH2 0xCCD DUP5 DUP3 PUSH1 0x20 DUP7 ADD PUSH2 0xC68 JUMP JUMPDEST SWAP2 POP POP SWAP3 SWAP2 POP POP JUMP JUMPDEST PUSH0 PUSH0 PUSH0 PUSH1 0x60 DUP5 DUP7 SUB SLT ISZERO PUSH2 0xCED JUMPI PUSH2 0xCEC PUSH2 0x94B JUMP JUMPDEST JUMPDEST PUSH0 PUSH2 0xCFA DUP7 DUP3 DUP8 ADD PUSH2 0xB5B JUMP JUMPDEST SWAP4 POP POP PUSH1 0x20 PUSH2 0xD0B DUP7 DUP3 DUP8 ADD PUSH2 0xA92 JUMP JUMPDEST SWAP3 POP POP PUSH1 0x40 DUP5 ADD CALLDATALOAD PUSH8 0xFFFFFFFFFFFFFFFF DUP2 GT ISZERO PUSH2 0xD2C JUMPI PUSH2 0xD2B PUSH2 0x94F JUMP JUMPDEST JUMPDEST PUSH2 0xD38 DUP7 DUP3 DUP8 ADD PUSH2 0xCA9 JUMP JUMPDEST SWAP2 POP POP SWAP3 POP SWAP3 POP SWAP3 JUMP JUMPDEST PUSH0 DUP2 MLOAD SWAP1 POP SWAP2 SWAP1 POP JUMP JUMPDEST PUSH0 DUP3 DUP3 MSTORE PUSH1 0x20 DUP3 ADD SWAP1 POP SWAP3 SWAP2 POP POP JUMP JUMPDEST DUP3 DUP2 DUP4 MCOPY PUSH0 DUP4 DUP4 ADD MSTORE POP POP POP JUMP JUMPDEST PUSH0 PUSH2 0xD74 DUP3 PUSH2 0xD42 JUMP JUMPDEST PUSH2 0xD7E DUP2 DUP6 PUSH2 0xD4C JUMP JUMPDEST SWAP4 POP PUSH2 0xD8E DUP2 DUP6 PUSH1 0x20 DUP7 ADD PUSH2 0xD5C JUMP JUMPDEST PUSH2 0xD97 DUP2 PUSH2 0xBA2 JUMP JUMPDEST DUP5 ADD SWAP2 POP POP SWAP3 SWAP2 POP POP JUMP JUMPDEST PUSH0 PUSH1 0x20 DUP3 ADD SWAP1 POP DUP2 DUP2 SUB PUSH0 DUP4 ADD MSTORE PUSH2 0xDBA DUP2 DUP5 PUSH2 0xD6A JUMP JUMPDEST SWAP1 POP SWAP3 SWAP2 POP POP JUMP JUMPDEST PUSH0 DUP3 DUP3 MSTORE PUSH1 0x20 DUP3 ADD SWAP1 POP SWAP3 SWAP2 POP POP JUMP JUMPDEST PUSH32 0x596F7520617265206E6F7420746865206F776E65720000000000000000000000 PUSH0 DUP3 ADD MSTORE POP JUMP JUMPDEST PUSH0 PUSH2 0xE06 PUSH1 0x15 DUP4 PUSH2 0xDC2 JUMP JUMPDEST SWAP2 POP PUSH2 0xE11 DUP3 PUSH2 0xDD2 JUMP JUMPDEST PUSH1 0x20 DUP3 ADD SWAP1 POP SWAP2 SWAP1 POP JUMP JUMPDEST PUSH0 PUSH1 0x20 DUP3 ADD SWAP1 POP DUP2 DUP2 SUB PUSH0 DUP4 ADD MSTORE PUSH2 0xE33 DUP2 PUSH2 0xDFA JUMP JUMPDEST SWAP1 POP SWAP2 SWAP1 POP JUMP JUMPDEST PUSH32 0x596F7520617265206E6F7420677561726469616E206F6620746869732077616C PUSH0 DUP3 ADD MSTORE PUSH32 0x6C65740000000000000000000000000000000000000000000000000000000000 PUSH1 0x20 DUP3 ADD MSTORE POP JUMP JUMPDEST PUSH0 PUSH2 0xE94 PUSH1 0x23 DUP4 PUSH2 0xDC2 JUMP JUMPDEST SWAP2 POP PUSH2 0xE9F DUP3 PUSH2 0xE3A JUMP JUMPDEST PUSH1 0x40 DUP3 ADD SWAP1 POP SWAP2 SWAP1 POP JUMP JUMPDEST PUSH0 PUSH1 0x20 DUP3 ADD SWAP1 POP DUP2 DUP2 SUB PUSH0 DUP4 ADD MSTORE PUSH2 0xEC1 DUP2 PUSH2 0xE88 JUMP JUMPDEST SWAP1 POP SWAP2 SWAP1 POP JUMP JUMPDEST PUSH32 0x596F7520616C726561647920766F74656420666F722074686973206E6577206F PUSH0 DUP3 ADD MSTORE PUSH32 0x776E657200000000000000000000000000000000000000000000000000000000 PUSH1 0x20 DUP3 ADD MSTORE POP JUMP JUMPDEST PUSH0 PUSH2 0xF22 PUSH1 0x24 DUP4 PUSH2 0xDC2 JUMP JUMPDEST SWAP2 POP PUSH2 0xF2D DUP3 PUSH2 0xEC8 JUMP JUMPDEST PUSH1 0x40 DUP3 ADD SWAP1 POP SWAP2 SWAP1 POP JUMP JUMPDEST PUSH0 PUSH1 0x20 DUP3 ADD SWAP1 POP DUP2 DUP2 SUB PUSH0 DUP4 ADD MSTORE PUSH2 0xF4F DUP2 PUSH2 0xF16 JUMP JUMPDEST SWAP1 POP SWAP2 SWAP1 POP JUMP JUMPDEST PUSH32 0x596F7520617265206E6F7420616C6C6F77656420746F2073656E6420616E7974 PUSH0 DUP3 ADD MSTORE PUSH32 0x68696E2066726F6D2074686973207361727420636F6E74726163742061626F72 PUSH1 0x20 DUP3 ADD MSTORE PUSH32 0x74696E6700000000000000000000000000000000000000000000000000000000 PUSH1 0x40 DUP3 ADD MSTORE POP JUMP JUMPDEST PUSH0 PUSH2 0xFD6 PUSH1 0x44 DUP4 PUSH2 0xDC2 JUMP JUMPDEST SWAP2 POP PUSH2 0xFE1 DUP3 PUSH2 0xF56 JUMP JUMPDEST PUSH1 0x60 DUP3 ADD SWAP1 POP SWAP2 SWAP1 POP JUMP JUMPDEST PUSH0 PUSH1 0x20 DUP3 ADD SWAP1 POP DUP2 DUP2 SUB PUSH0 DUP4 ADD MSTORE PUSH2 0x1003 DUP2 PUSH2 0xFCA JUMP JUMPDEST SWAP1 POP SWAP2 SWAP1 POP JUMP JUMPDEST PUSH32 0x496E73756666696369656E7420616C6C6F77616E636500000000000000000000 PUSH0 DUP3 ADD MSTORE POP JUMP JUMPDEST PUSH0 PUSH2 0x103E PUSH1 0x16 DUP4 PUSH2 0xDC2 JUMP JUMPDEST SWAP2 POP PUSH2 0x1049 DUP3 PUSH2 0x100A JUMP JUMPDEST PUSH1 0x20 DUP3 ADD SWAP1 POP SWAP2 SWAP1 POP JUMP JUMPDEST PUSH0 PUSH1 0x20 DUP3 ADD SWAP1 POP DUP2 DUP2 SUB PUSH0 DUP4 ADD MSTORE PUSH2 0x106B DUP2 PUSH2 0x1032 JUMP JUMPDEST SWAP1 POP SWAP2 SWAP1 POP JUMP JUMPDEST PUSH0 DUP2 SWAP1 POP SWAP3 SWAP2 POP POP JUMP JUMPDEST PUSH0 PUSH2 0x1086 DUP3 PUSH2 0xD42 JUMP JUMPDEST PUSH2 0x1090 DUP2 DUP6 PUSH2 0x1072 JUMP JUMPDEST SWAP4 POP PUSH2 0x10A0 DUP2 DUP6 PUSH1 0x20 DUP7 ADD PUSH2 0xD5C JUMP JUMPDEST DUP1 DUP5 ADD SWAP2 POP POP SWAP3 SWAP2 POP POP JUMP JUMPDEST PUSH0 PUSH2 0x10B7 DUP3 DUP5 PUSH2 0x107C JUMP JUMPDEST SWAP2 POP DUP2 SWAP1 POP SWAP3 SWAP2 POP POP JUMP JUMPDEST PUSH32 0x41626F7274696E672C2063616C6C20776173206E6F7420737563636573736675 PUSH0 DUP3 ADD MSTORE PUSH32 0x6C00000000000000000000000000000000000000000000000000000000000000 PUSH1 0x20 DUP3 ADD MSTORE POP JUMP JUMPDEST PUSH0 PUSH2 0x111C PUSH1 0x21 DUP4 PUSH2 0xDC2 JUMP JUMPDEST SWAP2 POP PUSH2 0x1127 DUP3 PUSH2 0x10C2 JUMP JUMPDEST PUSH1 0x40 DUP3 ADD SWAP1 POP SWAP2 SWAP1 POP JUMP JUMPDEST PUSH0 PUSH1 0x20 DUP3 ADD SWAP1 POP DUP2 DUP2 SUB PUSH0 DUP4 ADD MSTORE PUSH2 0x1149 DUP2 PUSH2 0x1110 JUMP JUMPDEST SWAP1 POP SWAP2 SWAP1 POP JUMP INVALID LOG2 PUSH5 0x6970667358 0x22 SLT KECCAK256 0xD8 MOD RETURNCONTRACT 0x38 GASLIMIT 0xD8 DUP16 NOT 0xE8 0xAF EXTCALL PUSH16 0xC7919996B4B4776CB7550642B38CD9A7 DUPN 0x47 RETURNCONTRACT 0xFD PUSH5 0x736F6C6343 STOP ADDMOD 0x1E STOP CALLER "
				},
				"gasEstimates": {
					"creation": {
						"codeDepositCost": "897200",
						"executionCost": "25197",
						"totalCost": "922397"
					},
					"external": {
						"allowance(address)": "2802",
						"confirmationsFromGuardiansForReset()": "347",
						"guardians(address)": "2834",
						"isAllowedToSend(address)": "2856",
						"owner()": "2551",
						"proposeNewOwner(address)": "36547",
						"setAllowance(address,uint256)": "49446",
						"setGuardian(address,bool)": "27192",
						"transfer(address,uint256,bytes)": "infinite"
					}
				},
				"methodIdentifiers": {
					"allowance(address)": "3e5beab9",
					"confirmationsFromGuardiansForReset()": "83012be1",
					"guardians(address)": "0633b14a",
					"isAllowedToSend(address)": "0bc605ad",
					"owner()": "8da5cb5b",
					"proposeNewOwner(address)": "b1f8100d",
					"setAllowance(address,uint256)": "310ec4a7",
					"setGuardian(address,bool)": "2b8a1c5a",
					"transfer(address,uint256,bytes)": "be45fd62"
				}
			},
			"storageLayout": {
				"storage": [
					{
						"astId": 20,
						"contract": "smart-wallet.sol:SmartWallet",
						"label": "owner",
						"offset": 0,
						"slot": "0",
						"type": "t_address_payable"
					},
					{
						"astId": 24,
						"contract": "smart-wallet.sol:SmartWallet",
						"label": "allowance",
						"offset": 0,
						"slot": "1",
						"type": "t_mapping(t_address,t_uint256)"
					},
					{
						"astId": 28,
						"contract": "smart-wallet.sol:SmartWallet",
						"label": "isAllowedToSend",
						"offset": 0,
						"slot": "2",
						"type": "t_mapping(t_address,t_bool)"
					},
					{
						"astId": 32,
						"contract": "smart-wallet.sol:SmartWallet",
						"label": "guardians",
						"offset": 0,
						"slot": "3",
						"type": "t_mapping(t_address,t_bool)"
					},
					{
						"astId": 34,
						"contract": "smart-wallet.sol:SmartWallet",
						"label": "nextOwner",
						"offset": 0,
						"slot": "4",
						"type": "t_address_payable"
					},
					{
						"astId": 40,
						"contract": "smart-wallet.sol:SmartWallet",
						"label": "nextOwnerGuardianVotedBool",
						"offset": 0,
						"slot": "5",
						"type": "t_mapping(t_address,t_mapping(t_address,t_bool))"
					},
					{
						"astId": 42,
						"contract": "smart-wallet.sol:SmartWallet",
						"label": "guardiansResetCount",
						"offset": 0,
						"slot": "6",
						"type": "t_uint256"
					}
				],
				"types": {
					"t_address": {
						"encoding": "inplace",
						"label": "address",
						"numberOfBytes": "20"
					},
					"t_address_payable": {
						"encoding": "inplace",
						"label": "address payable",
						"numberOfBytes": "20"
					},
					"t_bool": {
						"encoding": "inplace",
						"label": "bool",
						"numberOfBytes": "1"
					},
					"t_mapping(t_address,t_bool)": {
						"encoding": "mapping",
						"key": "t_address",
						"label": "mapping(address => bool)",
						"numberOfBytes": "32",
						"value": "t_bool"
					},
					"t_mapping(t_address,t_mapping(t_address,t_bool))": {
						"encoding": "mapping",
						"key": "t_address",
						"label": "mapping(address => mapping(address => bool))",
						"numberOfBytes": "32",
						"value": "t_mapping(t_address,t_bool)"
					},
					"t_mapping(t_address,t_uint256)": {
						"encoding": "mapping",
						"key": "t_address",
						"label": "mapping(address => uint256)",
						"numberOfBytes": "32",
						"value": "t_uint256"
					},
					"t_uint256": {
						"encoding": "inplace",
						"label": "uint256",
						"numberOfBytes": "32"
					}
				}
			},
			"userdoc": {
				"kind": "user",
				"methods": {},
				"version": 1
			}
		}
	}
}